{
  "contractName": "Bitcoin",
  "abi": [
    {
      "inputs": [],
      "stateMutability": "nonpayable",
      "type": "constructor"
    },
    {
      "anonymous": false,
      "inputs": [
        {
          "indexed": true,
          "internalType": "address",
          "name": "owner",
          "type": "address"
        },
        {
          "indexed": true,
          "internalType": "address",
          "name": "spender",
          "type": "address"
        },
        {
          "indexed": false,
          "internalType": "uint256",
          "name": "value",
          "type": "uint256"
        }
      ],
      "name": "Approval",
      "type": "event"
    },
    {
      "anonymous": false,
      "inputs": [
        {
          "indexed": true,
          "internalType": "address",
          "name": "from",
          "type": "address"
        },
        {
          "indexed": true,
          "internalType": "address",
          "name": "to",
          "type": "address"
        },
        {
          "indexed": false,
          "internalType": "uint256",
          "name": "value",
          "type": "uint256"
        }
      ],
      "name": "Transfer",
      "type": "event"
    },
    {
      "inputs": [
        {
          "internalType": "address",
          "name": "",
          "type": "address"
        }
      ],
      "name": "_balances",
      "outputs": [
        {
          "internalType": "uint256",
          "name": "",
          "type": "uint256"
        }
      ],
      "stateMutability": "view",
      "type": "function",
      "constant": true
    },
    {
      "inputs": [],
      "name": "name",
      "outputs": [
        {
          "internalType": "string",
          "name": "",
          "type": "string"
        }
      ],
      "stateMutability": "view",
      "type": "function",
      "constant": true
    },
    {
      "inputs": [],
      "name": "symbol",
      "outputs": [
        {
          "internalType": "string",
          "name": "",
          "type": "string"
        }
      ],
      "stateMutability": "view",
      "type": "function",
      "constant": true
    },
    {
      "inputs": [],
      "name": "decimals",
      "outputs": [
        {
          "internalType": "uint8",
          "name": "",
          "type": "uint8"
        }
      ],
      "stateMutability": "view",
      "type": "function",
      "constant": true
    },
    {
      "inputs": [],
      "name": "totalSupply",
      "outputs": [
        {
          "internalType": "uint256",
          "name": "",
          "type": "uint256"
        }
      ],
      "stateMutability": "view",
      "type": "function",
      "constant": true
    },
    {
      "inputs": [
        {
          "internalType": "address",
          "name": "account",
          "type": "address"
        }
      ],
      "name": "balanceOf",
      "outputs": [
        {
          "internalType": "uint256",
          "name": "",
          "type": "uint256"
        }
      ],
      "stateMutability": "view",
      "type": "function",
      "constant": true
    },
    {
      "inputs": [
        {
          "internalType": "address",
          "name": "to",
          "type": "address"
        },
        {
          "internalType": "uint256",
          "name": "amount",
          "type": "uint256"
        }
      ],
      "name": "transfer",
      "outputs": [
        {
          "internalType": "bool",
          "name": "",
          "type": "bool"
        }
      ],
      "stateMutability": "nonpayable",
      "type": "function"
    },
    {
      "inputs": [
        {
          "internalType": "address",
          "name": "owner",
          "type": "address"
        },
        {
          "internalType": "address",
          "name": "spender",
          "type": "address"
        }
      ],
      "name": "allowance",
      "outputs": [
        {
          "internalType": "uint256",
          "name": "",
          "type": "uint256"
        }
      ],
      "stateMutability": "view",
      "type": "function",
      "constant": true
    },
    {
      "inputs": [
        {
          "internalType": "address",
          "name": "spender",
          "type": "address"
        },
        {
          "internalType": "uint256",
          "name": "amount",
          "type": "uint256"
        }
      ],
      "name": "approve",
      "outputs": [
        {
          "internalType": "bool",
          "name": "",
          "type": "bool"
        }
      ],
      "stateMutability": "nonpayable",
      "type": "function"
    },
    {
      "inputs": [
        {
          "internalType": "address",
          "name": "from",
          "type": "address"
        },
        {
          "internalType": "address",
          "name": "to",
          "type": "address"
        },
        {
          "internalType": "uint256",
          "name": "amount",
          "type": "uint256"
        }
      ],
      "name": "transferFrom",
      "outputs": [
        {
          "internalType": "bool",
          "name": "",
          "type": "bool"
        }
      ],
      "stateMutability": "nonpayable",
      "type": "function"
    }
  ],
  "bytecode": "0x60806040526040518060400160405280600981526020017f426974636f696e31350000000000000000000000000000000000000000000000815250600290816200004a919062000389565b506040518060400160405280600581526020017f42544331350000000000000000000000000000000000000000000000000000008152506003908162000091919062000389565b50633b9aca006004556012600560006101000a81548160ff021916908360ff160217905550348015620000c357600080fd5b506004546000803373ffffffffffffffffffffffffffffffffffffffff1673ffffffffffffffffffffffffffffffffffffffff1681526020019081526020016000208190555062000470565b600081519050919050565b7f4e487b7100000000000000000000000000000000000000000000000000000000600052604160045260246000fd5b7f4e487b7100000000000000000000000000000000000000000000000000000000600052602260045260246000fd5b600060028204905060018216806200019157607f821691505b602082108103620001a757620001a662000149565b5b50919050565b60008190508160005260206000209050919050565b60006020601f8301049050919050565b600082821b905092915050565b600060088302620002117fffffffffffffffffffffffffffffffffffffffffffffffffffffffffffffffff82620001d2565b6200021d8683620001d2565b95508019841693508086168417925050509392505050565b6000819050919050565b6000819050919050565b60006200026a620002646200025e8462000235565b6200023f565b62000235565b9050919050565b6000819050919050565b620002868362000249565b6200029e620002958262000271565b848454620001df565b825550505050565b600090565b620002b5620002a6565b620002c28184846200027b565b505050565b5b81811015620002ea57620002de600082620002ab565b600181019050620002c8565b5050565b601f82111562000339576200030381620001ad565b6200030e84620001c2565b810160208510156200031e578190505b620003366200032d85620001c2565b830182620002c7565b50505b505050565b600082821c905092915050565b60006200035e600019846008026200033e565b1980831691505092915050565b60006200037983836200034b565b9150826002028217905092915050565b62000394826200010f565b67ffffffffffffffff811115620003b057620003af6200011a565b5b620003bc825462000178565b620003c9828285620002ee565b600060209050601f831160018114620004015760008415620003ec578287015190505b620003f885826200036b565b86555062000468565b601f1984166200041186620001ad565b60005b828110156200043b5784890151825560018201915060208501945060208101905062000414565b868310156200045b578489015162000457601f8916826200034b565b8355505b6001600288020188555050505b505050505050565b6110ba80620004806000396000f3fe608060405234801561001057600080fd5b506004361061009e5760003560e01c80636ebcf607116100665780636ebcf6071461015d57806370a082311461018d57806395d89b41146101bd578063a9059cbb146101db578063dd62ed3e1461020b5761009e565b806306fdde03146100a3578063095ea7b3146100c157806318160ddd146100f157806323b872dd1461010f578063313ce5671461013f575b600080fd5b6100ab61023b565b6040516100b89190610a8c565b60405180910390f35b6100db60048036038101906100d69190610b47565b6102cd565b6040516100e89190610ba2565b60405180910390f35b6100f96102f0565b6040516101069190610bcc565b60405180910390f35b61012960048036038101906101249190610be7565b6102fa565b6040516101369190610ba2565b60405180910390f35b610147610418565b6040516101549190610c56565b60405180910390f35b61017760048036038101906101729190610c71565b61042f565b6040516101849190610bcc565b60405180910390f35b6101a760048036038101906101a29190610c71565b610447565b6040516101b49190610bcc565b60405180910390f35b6101c561048f565b6040516101d29190610a8c565b60405180910390f35b6101f560048036038101906101f09190610b47565b610521565b6040516102029190610ba2565b60405180910390f35b61022560048036038101906102209190610c9e565b610544565b6040516102329190610bcc565b60405180910390f35b60606002805461024a90610d0d565b80601f016020809104026020016040519081016040528092919081815260200182805461027690610d0d565b80156102c35780601f10610298576101008083540402835291602001916102c3565b820191906000526020600020905b8154815290600101906020018083116102a657829003601f168201915b5050505050905090565b6000806102d86105cb565b90506102e58185856105d3565b600191505092915050565b6000600454905090565b6000806103056105cb565b90506000600160008773ffffffffffffffffffffffffffffffffffffffff1673ffffffffffffffffffffffffffffffffffffffff16815260200190815260200160002060008373ffffffffffffffffffffffffffffffffffffffff1673ffffffffffffffffffffffffffffffffffffffff1681526020019081526020016000205490507fffffffffffffffffffffffffffffffffffffffffffffffffffffffffffffffff811461040057838110156103f2576040517f08c379a00000000000000000000000000000000000000000000000000000000081526004016103e990610d8a565b60405180910390fd5b6103ff86838684036105d3565b5b61040b86868661079c565b6001925050509392505050565b6000600560009054906101000a900460ff16905090565b60006020528060005260406000206000915090505481565b60008060008373ffffffffffffffffffffffffffffffffffffffff1673ffffffffffffffffffffffffffffffffffffffff168152602001908152602001600020549050919050565b60606003805461049e90610d0d565b80601f01602080910402602001604051908101604052809291908181526020018280546104ca90610d0d565b80156105175780601f106104ec57610100808354040283529160200191610517565b820191906000526020600020905b8154815290600101906020018083116104fa57829003601f168201915b5050505050905090565b60008061052c6105cb565b905061053981858561079c565b600191505092915050565b6000600160008473ffffffffffffffffffffffffffffffffffffffff1673ffffffffffffffffffffffffffffffffffffffff16815260200190815260200160002060008373ffffffffffffffffffffffffffffffffffffffff1673ffffffffffffffffffffffffffffffffffffffff16815260200190815260200160002054905092915050565b600033905090565b600073ffffffffffffffffffffffffffffffffffffffff168373ffffffffffffffffffffffffffffffffffffffff1603610642576040517f08c379a000000000000000000000000000000000000000000000000000000000815260040161063990610e1c565b60405180910390fd5b600073ffffffffffffffffffffffffffffffffffffffff168273ffffffffffffffffffffffffffffffffffffffff16036106b1576040517f08c379a00000000000000000000000000000000000000000000000000000000081526004016106a890610eae565b60405180910390fd5b80600160008573ffffffffffffffffffffffffffffffffffffffff1673ffffffffffffffffffffffffffffffffffffffff16815260200190815260200160002060008473ffffffffffffffffffffffffffffffffffffffff1673ffffffffffffffffffffffffffffffffffffffff168152602001908152602001600020819055508173ffffffffffffffffffffffffffffffffffffffff168373ffffffffffffffffffffffffffffffffffffffff167f8c5be1e5ebec7d5bd14f71427d1e84f3dd0314c0f7b2291e5b200ac8c7c3b9258360405161078f9190610bcc565b60405180910390a3505050565b600073ffffffffffffffffffffffffffffffffffffffff168373ffffffffffffffffffffffffffffffffffffffff160361080b576040517f08c379a000000000000000000000000000000000000000000000000000000000815260040161080290610f40565b60405180910390fd5b600073ffffffffffffffffffffffffffffffffffffffff168273ffffffffffffffffffffffffffffffffffffffff160361087a576040517f08c379a000000000000000000000000000000000000000000000000000000000815260040161087190610fd2565b60405180910390fd5b60008060008573ffffffffffffffffffffffffffffffffffffffff1673ffffffffffffffffffffffffffffffffffffffff16815260200190815260200160002054905081811015610900576040517f08c379a00000000000000000000000000000000000000000000000000000000081526004016108f790611064565b60405180910390fd5b8181036000808673ffffffffffffffffffffffffffffffffffffffff1673ffffffffffffffffffffffffffffffffffffffff16815260200190815260200160002081905550816000808573ffffffffffffffffffffffffffffffffffffffff1673ffffffffffffffffffffffffffffffffffffffff168152602001908152602001600020600082825401925050819055508273ffffffffffffffffffffffffffffffffffffffff168473ffffffffffffffffffffffffffffffffffffffff167fddf252ad1be2c89b69c2b068fc378daa952ba7f163c4a11628f55a4df523b3ef846040516109ee9190610bcc565b60405180910390a350505050565b600081519050919050565b600082825260208201905092915050565b60005b83811015610a36578082015181840152602081019050610a1b565b60008484015250505050565b6000601f19601f8301169050919050565b6000610a5e826109fc565b610a688185610a07565b9350610a78818560208601610a18565b610a8181610a42565b840191505092915050565b60006020820190508181036000830152610aa68184610a53565b905092915050565b600080fd5b600073ffffffffffffffffffffffffffffffffffffffff82169050919050565b6000610ade82610ab3565b9050919050565b610aee81610ad3565b8114610af957600080fd5b50565b600081359050610b0b81610ae5565b92915050565b6000819050919050565b610b2481610b11565b8114610b2f57600080fd5b50565b600081359050610b4181610b1b565b92915050565b60008060408385031215610b5e57610b5d610aae565b5b6000610b6c85828601610afc565b9250506020610b7d85828601610b32565b9150509250929050565b60008115159050919050565b610b9c81610b87565b82525050565b6000602082019050610bb76000830184610b93565b92915050565b610bc681610b11565b82525050565b6000602082019050610be16000830184610bbd565b92915050565b600080600060608486031215610c0057610bff610aae565b5b6000610c0e86828701610afc565b9350506020610c1f86828701610afc565b9250506040610c3086828701610b32565b9150509250925092565b600060ff82169050919050565b610c5081610c3a565b82525050565b6000602082019050610c6b6000830184610c47565b92915050565b600060208284031215610c8757610c86610aae565b5b6000610c9584828501610afc565b91505092915050565b60008060408385031215610cb557610cb4610aae565b5b6000610cc385828601610afc565b9250506020610cd485828601610afc565b9150509250929050565b7f4e487b7100000000000000000000000000000000000000000000000000000000600052602260045260246000fd5b60006002820490506001821680610d2557607f821691505b602082108103610d3857610d37610cde565b5b50919050565b7f45524332303a20696e73756666696369656e7420616c6c6f77616e6365000000600082015250565b6000610d74601d83610a07565b9150610d7f82610d3e565b602082019050919050565b60006020820190508181036000830152610da381610d67565b9050919050565b7f45524332303a20617070726f76652066726f6d20746865207a65726f2061646460008201527f7265737300000000000000000000000000000000000000000000000000000000602082015250565b6000610e06602483610a07565b9150610e1182610daa565b604082019050919050565b60006020820190508181036000830152610e3581610df9565b9050919050565b7f45524332303a20617070726f766520746f20746865207a65726f20616464726560008201527f7373000000000000000000000000000000000000000000000000000000000000602082015250565b6000610e98602283610a07565b9150610ea382610e3c565b604082019050919050565b60006020820190508181036000830152610ec781610e8b565b9050919050565b7f45524332303a207472616e736665722066726f6d20746865207a65726f20616460008201527f6472657373000000000000000000000000000000000000000000000000000000602082015250565b6000610f2a602583610a07565b9150610f3582610ece565b604082019050919050565b60006020820190508181036000830152610f5981610f1d565b9050919050565b7f45524332303a207472616e7366657220746f20746865207a65726f206164647260008201527f6573730000000000000000000000000000000000000000000000000000000000602082015250565b6000610fbc602383610a07565b9150610fc782610f60565b604082019050919050565b60006020820190508181036000830152610feb81610faf565b9050919050565b7f45524332303a207472616e7366657220616d6f756e742065786365656473206260008201527f616c616e63650000000000000000000000000000000000000000000000000000602082015250565b600061104e602683610a07565b915061105982610ff2565b604082019050919050565b6000602082019050818103600083015261107d81611041565b905091905056fea26469706673582212205369b701f7e0a5bedc744360c3c63acc1e11d7facbdf71d1f516d706d8833a1364736f6c63430008110033",
  "immutableReferences": {},
  "source": "// SPDX-License-Identifier: MIT\npragma solidity >=0.8.17 <0.9.0;\n\nimport \"./Context.sol\";\nimport \"./IERC20.sol\";\n\ncontract Bitcoin is IERC20, Context {\n    // [owner: amount]\n    mapping(address => uint256) public _balances;\n\n    // owner: [spender: amount]\n    mapping(address => mapping(address => uint256)) private _allowances;\n\n    // uint256 private _totalSupply;\n\n    string private _name = \"Bitcoin15\";\n    string private _symbol = \"BTC15\";\n    uint256 private _totalSupply = 1000000000; // 1 billions tokens\n    uint8 private _decimals = 18;\n\n    /**\n     * @dev Sets the values for {name} and {symbol}.\n     *\n     * The default value of {decimals} is 18. To select a different value for\n     * {decimals} you should overload it.\n     *\n     * All two of these values are immutable: they can only be set once during\n     * construction.\n     */\n    // constructor(string memory name_, string memory symbol_) {\n    constructor() {\n        _balances[msg.sender] = _totalSupply;\n    }\n\n    function name() external view returns (string memory) {\n        return _name;\n    }\n\n    function symbol() external view returns (string memory) {\n        return _symbol;\n    }\n\n    function decimals() external view returns (uint8) {\n        return _decimals;\n    }\n\n    /**\n     * @dev Returns the amount of tokens in existence.\n     */\n    function totalSupply() external view returns (uint256) {\n        return _totalSupply;\n    }\n\n    /**\n     * @dev Returns the amount of tokens owned by `account`.\n     */\n    function balanceOf(address account) external view returns (uint256) {\n        return _balances[account];\n    }\n\n    /**\n     * @dev Moves `amount` tokens from the caller's account to `to`.\n     *\n     * Returns a boolean value indicating whether the operation succeeded.\n     *\n     * Emits a {Transfer} event.\n     */\n    function transfer(address to, uint256 amount) external returns (bool) {\n        address owner = _msgSender();\n        _transfer(owner, to, amount);\n        return true;\n    }\n\n    /**\n     * @dev Returns the remaining number of tokens that `spender` will be\n     * allowed to spend on behalf of `owner` through {transferFrom}. This is\n     * zero by default.\n     *\n     * This value changes when {approve} or {transferFrom} are called.\n     */\n    function allowance(address owner, address spender)\n        external\n        view\n        returns (uint256)\n    {\n        return _allowances[owner][spender];\n    }\n\n    /**\n     * @dev Sets `amount` as the allowance of `spender` over the caller's tokens.\n     *\n     * Returns a boolean value indicating whether the operation succeeded.\n     *\n     * IMPORTANT: Beware that changing an allowance with this method brings the risk\n     * that someone may use both the old and the new allowance by unfortunate\n     * transaction ordering. One possible solution to mitigate this race\n     * condition is to first reduce the spender's allowance to 0 and set the\n     * desired value afterwards:\n     * https://github.com/ethereum/EIPs/issues/20#issuecomment-263524729\n     *\n     * Emits an {Approval} event.\n     */\n    function approve(address spender, uint256 amount) external returns (bool) {\n        address owner = _msgSender();\n        _approve(owner, spender, amount);\n        return true;\n    }\n\n    function _approve(\n        address owner,\n        address spender,\n        uint256 amount\n    ) internal {\n        require(owner != address(0), \"ERC20: approve from the zero address\");\n        require(spender != address(0), \"ERC20: approve to the zero address\");\n\n        _allowances[owner][spender] = amount;\n        emit Approval(owner, spender, amount);\n    }\n\n    /**\n     * @dev Moves `amount` tokens from `from` to `to` using the\n     * allowance mechanism. `amount` is then deducted from the caller's\n     * allowance.\n     *\n     * Returns a boolean value indicating whether the operation succeeded.\n     *\n     * Emits a {Transfer} event.\n     */\n    function transferFrom(\n        address from, // owner\n        address to,\n        uint256 amount\n    ) external returns (bool) {\n        address spender = _msgSender();\n        uint256 currentAllowance = _allowances[from][spender];\n        // uint256 currentAllowance = allowance(from, spender);\n        if (currentAllowance != type(uint256).max) {\n            require(\n                currentAllowance >= amount,\n                \"ERC20: insufficient allowance\"\n            );\n            unchecked {\n                // set li _allowances\n                _approve(from, spender, currentAllowance - amount);\n            }\n        }\n        _transfer(from, to, amount);\n        return true;\n    }\n\n    function _transfer(\n        address from,\n        address to,\n        uint256 amount\n    ) internal {\n        require(from != address(0), \"ERC20: transfer from the zero address\");\n        require(to != address(0), \"ERC20: transfer to the zero address\");\n\n        uint256 fromBalance = _balances[from];\n        require(\n            fromBalance >= amount,\n            \"ERC20: transfer amount exceeds balance\"\n        );\n\n        unchecked {\n            _balances[from] = fromBalance - amount;\n            // Overflow not possible: the sum of all balances is capped by totalSupply, and the sum is preserved by\n            // decrementing then incrementing.\n            _balances[to] += amount;\n        }\n\n        emit Transfer(from, to, amount);\n    }\n}\n",
  "sourcePath": "C:\\Users\\hai.ngodang\\Code\\staking-dapp\\public\\truffle\\contracts\\Bitcoin.sol",
  "compiler": {
    "name": "solc",
    "version": "0.8.17+commit.8df45f5f.Emscripten.clang"
  },
  "schemaVersion": "3.4.10",
  "updatedAt": "2022-11-28T07:46:27.915Z",
  "networkType": "ethereum",
  "devdoc": {
    "kind": "dev",
    "methods": {
      "allowance(address,address)": {
        "details": "Returns the remaining number of tokens that `spender` will be allowed to spend on behalf of `owner` through {transferFrom}. This is zero by default. This value changes when {approve} or {transferFrom} are called."
      },
      "approve(address,uint256)": {
        "details": "Sets `amount` as the allowance of `spender` over the caller's tokens. Returns a boolean value indicating whether the operation succeeded. IMPORTANT: Beware that changing an allowance with this method brings the risk that someone may use both the old and the new allowance by unfortunate transaction ordering. One possible solution to mitigate this race condition is to first reduce the spender's allowance to 0 and set the desired value afterwards: https://github.com/ethereum/EIPs/issues/20#issuecomment-263524729 Emits an {Approval} event."
      },
      "balanceOf(address)": {
        "details": "Returns the amount of tokens owned by `account`."
      },
      "constructor": {
        "details": "Sets the values for {name} and {symbol}. The default value of {decimals} is 18. To select a different value for {decimals} you should overload it. All two of these values are immutable: they can only be set once during construction."
      },
      "totalSupply()": {
        "details": "Returns the amount of tokens in existence."
      },
      "transfer(address,uint256)": {
        "details": "Moves `amount` tokens from the caller's account to `to`. Returns a boolean value indicating whether the operation succeeded. Emits a {Transfer} event."
      },
      "transferFrom(address,address,uint256)": {
        "details": "Moves `amount` tokens from `from` to `to` using the allowance mechanism. `amount` is then deducted from the caller's allowance. Returns a boolean value indicating whether the operation succeeded. Emits a {Transfer} event."
      }
    },
    "version": 1
  },
  "userdoc": {
    "kind": "user",
    "methods": {},
    "version": 1
  }
}