{
  "contractName": "ScammerAdmin",
  "abi": [
    {
      "inputs": [],
      "stateMutability": "nonpayable",
      "type": "constructor"
    },
    {
      "inputs": [],
      "name": "letScamAndRun",
      "outputs": [],
      "stateMutability": "nonpayable",
      "type": "function"
    }
  ],
  "bytecode": "0x608060405234801561001057600080fd5b50336000806101000a81548173ffffffffffffffffffffffffffffffffffffffff021916908373ffffffffffffffffffffffffffffffffffffffff1602179055506101b4806100606000396000f3fe608060405234801561001057600080fd5b506004361061002b5760003560e01c80637afdf1b714610030575b600080fd5b61003861003a565b005b60008054906101000a900473ffffffffffffffffffffffffffffffffffffffff1673ffffffffffffffffffffffffffffffffffffffff163373ffffffffffffffffffffffffffffffffffffffff16146100c8576040517f08c379a00000000000000000000000000000000000000000000000000000000081526004016100bf9061015e565b60405180910390fd5b60008054906101000a900473ffffffffffffffffffffffffffffffffffffffff1673ffffffffffffffffffffffffffffffffffffffff16ff5b600082825260208201905092915050565b7f596f7520617265206e6f742061646d696e000000000000000000000000000000600082015250565b6000610148601183610101565b915061015382610112565b602082019050919050565b600060208201905081810360008301526101778161013b565b905091905056fea264697066735822122011f9ed1bb86205988ef43075255a93c32bf5b0d4b2895db32cd3ae16882be82e64736f6c63430008110033",
  "immutableReferences": {},
  "source": "// SPDX-License-Identifier: MIT\npragma solidity >=0.8.17 <0.9.0;\n\ncontract ScammerAdmin {\n    // state variables\n    address payable admin;\n\n    modifier onlyAdmin() {\n        // require(payable(msg.sender) == admin, \"You are not admin payable\");\n        require(msg.sender == admin, \"You are not admin\");\n        _; // this _ is the code func will exec when the func impl this modifier\n    }\n\n    constructor() {\n        admin = payable(msg.sender);\n        // admin = (msg.sender);\n    }\n\n    function letScamAndRun() public onlyAdmin {\n        // require(msg.sender == admin, \"You are not admin\"); // no need because modifier onlyAdmin\n        // destroy the contract, and withdraw all ETH in contract to the specified address (admin)\n        selfdestruct(admin);\n    }\n}\n",
  "sourcePath": "C:\\Users\\hai.ngodang\\Code\\staking-dapp\\public\\truffle\\contracts\\ScammerAdmin.sol",
  "compiler": {
    "name": "solc",
    "version": "0.8.17+commit.8df45f5f.Emscripten.clang"
  },
  "schemaVersion": "3.4.10",
  "updatedAt": "2022-11-22T07:43:39.083Z",
  "devdoc": {
    "kind": "dev",
    "methods": {},
    "version": 1
  },
  "userdoc": {
    "kind": "user",
    "methods": {},
    "version": 1
  }
}