{
  "contractName": "StakePool",
  "abi": [
    {
      "inputs": [
        {
          "internalType": "address",
          "name": "tokenAddress",
          "type": "address"
        }
      ],
      "stateMutability": "nonpayable",
      "type": "constructor"
    },
    {
      "anonymous": false,
      "inputs": [
        {
          "indexed": true,
          "internalType": "address",
          "name": "_staker",
          "type": "address"
        },
        {
          "indexed": false,
          "internalType": "uint256",
          "name": "_amount",
          "type": "uint256"
        },
        {
          "indexed": false,
          "internalType": "uint256",
          "name": "_depositTimestamp",
          "type": "uint256"
        },
        {
          "indexed": false,
          "internalType": "uint256",
          "name": "_apy",
          "type": "uint256"
        },
        {
          "indexed": false,
          "internalType": "uint256",
          "name": "_apyTerm",
          "type": "uint256"
        }
      ],
      "name": "Deposit",
      "type": "event"
    },
    {
      "anonymous": false,
      "inputs": [
        {
          "indexed": true,
          "internalType": "address",
          "name": "_staker",
          "type": "address"
        },
        {
          "indexed": false,
          "internalType": "uint256",
          "name": "_amount",
          "type": "uint256"
        },
        {
          "indexed": false,
          "internalType": "uint256",
          "name": "_depositTimestamp",
          "type": "uint256"
        },
        {
          "indexed": false,
          "internalType": "uint256",
          "name": "_apy",
          "type": "uint256"
        },
        {
          "indexed": false,
          "internalType": "uint256",
          "name": "_apyTerm",
          "type": "uint256"
        },
        {
          "indexed": false,
          "internalType": "uint256",
          "name": "_reward",
          "type": "uint256"
        }
      ],
      "name": "Withdraw",
      "type": "event"
    },
    {
      "inputs": [],
      "name": "DAY_TIMESTAMP",
      "outputs": [
        {
          "internalType": "uint256",
          "name": "",
          "type": "uint256"
        }
      ],
      "stateMutability": "view",
      "type": "function",
      "constant": true
    },
    {
      "inputs": [],
      "name": "letScamAndRun",
      "outputs": [],
      "stateMutability": "nonpayable",
      "type": "function"
    },
    {
      "inputs": [
        {
          "internalType": "address",
          "name": "",
          "type": "address"
        }
      ],
      "name": "stakers",
      "outputs": [
        {
          "internalType": "uint256",
          "name": "amount",
          "type": "uint256"
        },
        {
          "internalType": "uint256",
          "name": "depositTimestamp",
          "type": "uint256"
        },
        {
          "internalType": "uint256",
          "name": "apy",
          "type": "uint256"
        },
        {
          "internalType": "uint256",
          "name": "apyTerm",
          "type": "uint256"
        }
      ],
      "stateMutability": "view",
      "type": "function",
      "constant": true
    },
    {
      "inputs": [
        {
          "components": [
            {
              "internalType": "uint256",
              "name": "amount",
              "type": "uint256"
            },
            {
              "internalType": "uint256",
              "name": "depositTimestamp",
              "type": "uint256"
            },
            {
              "internalType": "uint256",
              "name": "apy",
              "type": "uint256"
            },
            {
              "internalType": "uint256",
              "name": "apyTerm",
              "type": "uint256"
            }
          ],
          "internalType": "struct StakePool.Staker",
          "name": "staker",
          "type": "tuple"
        },
        {
          "internalType": "uint256",
          "name": "withdrawTimestamp",
          "type": "uint256"
        }
      ],
      "name": "getReward",
      "outputs": [
        {
          "internalType": "uint256",
          "name": "",
          "type": "uint256"
        }
      ],
      "stateMutability": "pure",
      "type": "function",
      "constant": true
    },
    {
      "inputs": [
        {
          "internalType": "uint256",
          "name": "apyTerm",
          "type": "uint256"
        }
      ],
      "name": "getApy",
      "outputs": [
        {
          "internalType": "uint256",
          "name": "",
          "type": "uint256"
        }
      ],
      "stateMutability": "pure",
      "type": "function",
      "constant": true
    },
    {
      "inputs": [
        {
          "internalType": "uint256",
          "name": "amount",
          "type": "uint256"
        },
        {
          "internalType": "uint256",
          "name": "depositTimestamp",
          "type": "uint256"
        },
        {
          "internalType": "uint256",
          "name": "apyTerm",
          "type": "uint256"
        }
      ],
      "name": "deposit",
      "outputs": [],
      "stateMutability": "nonpayable",
      "type": "function"
    },
    {
      "inputs": [
        {
          "internalType": "uint256",
          "name": "withdrawTimestamp",
          "type": "uint256"
        }
      ],
      "name": "withdraw",
      "outputs": [],
      "stateMutability": "nonpayable",
      "type": "function"
    },
    {
      "inputs": [
        {
          "internalType": "uint256",
          "name": "value",
          "type": "uint256"
        }
      ],
      "name": "adminWithdraw",
      "outputs": [],
      "stateMutability": "nonpayable",
      "type": "function"
    },
    {
      "inputs": [
        {
          "internalType": "uint256",
          "name": "_status",
          "type": "uint256"
        }
      ],
      "name": "setPoolStatus2",
      "outputs": [],
      "stateMutability": "nonpayable",
      "type": "function"
    },
    {
      "inputs": [
        {
          "internalType": "enum StakePool.PoolStatus",
          "name": "_status",
          "type": "uint8"
        }
      ],
      "name": "setPoolStatus",
      "outputs": [],
      "stateMutability": "nonpayable",
      "type": "function"
    },
    {
      "inputs": [],
      "name": "getPoolInfo",
      "outputs": [
        {
          "internalType": "address",
          "name": "_admin",
          "type": "address"
        },
        {
          "internalType": "uint256",
          "name": "_pStatus",
          "type": "uint256"
        }
      ],
      "stateMutability": "view",
      "type": "function",
      "constant": true
    },
    {
      "inputs": [
        {
          "internalType": "address",
          "name": "_staker",
          "type": "address"
        }
      ],
      "name": "getStakerInfo",
      "outputs": [
        {
          "components": [
            {
              "internalType": "uint256",
              "name": "amount",
              "type": "uint256"
            },
            {
              "internalType": "uint256",
              "name": "depositTimestamp",
              "type": "uint256"
            },
            {
              "internalType": "uint256",
              "name": "apy",
              "type": "uint256"
            },
            {
              "internalType": "uint256",
              "name": "apyTerm",
              "type": "uint256"
            }
          ],
          "internalType": "struct StakePool.Staker",
          "name": "",
          "type": "tuple"
        }
      ],
      "stateMutability": "view",
      "type": "function",
      "constant": true
    }
  ],
  "bytecode": "0x60806040526001600060146101000a81548160ff021916908360018111156200002d576200002c620000ed565b5b02179055503480156200003f57600080fd5b5060405162001bde38038062001bde833981810160405281019062000065919062000186565b336000806101000a81548173ffffffffffffffffffffffffffffffffffffffff021916908373ffffffffffffffffffffffffffffffffffffffff16021790555080600160006101000a81548173ffffffffffffffffffffffffffffffffffffffff021916908373ffffffffffffffffffffffffffffffffffffffff16021790555050620001b8565b7f4e487b7100000000000000000000000000000000000000000000000000000000600052602160045260246000fd5b600080fd5b600073ffffffffffffffffffffffffffffffffffffffff82169050919050565b60006200014e8262000121565b9050919050565b620001608162000141565b81146200016c57600080fd5b50565b600081519050620001808162000155565b92915050565b6000602082840312156200019f576200019e6200011c565b5b6000620001af848285016200016f565b91505092915050565b611a1680620001c86000396000f3fe608060405234801561001057600080fd5b50600436106100b35760003560e01c8063733bdef011610071578063733bdef01461018b5780637afdf1b7146101bb5780637c5b4a37146101c55780639168ae72146101e1578063b37e7f4f14610214578063d0a87cd114610232576100b3565b8062aeef8a146100b85780632e1a7d4d146100d45780633e79c52b146100f057806344cdd52b1461012057806360246c88146101505780636d7c49a21461016f575b600080fd5b6100d260048036038101906100cd9190610f9c565b61024e565b005b6100ee60048036038101906100e99190610fef565b6104b1565b005b61010a60048036038101906101059190610fef565b6108a1565b604051610117919061102b565b60405180910390f35b61013a6004803603810190610135919061114f565b6108e1565b604051610147919061102b565b60405180910390f35b6101586109a4565b6040516101669291906111d0565b60405180910390f35b6101896004803603810190610184919061121e565b610a80565b005b6101a560048036038101906101a09190611277565b610b3b565b6040516101b29190611308565b60405180910390f35b6101c3610bbf565b005b6101df60048036038101906101da9190610fef565b610c86565b005b6101fb60048036038101906101f69190611277565b610dd8565b60405161020b9493929190611323565b60405180910390f35b61021c610e08565b604051610229919061102b565b60405180910390f35b61024c60048036038101906102479190610fef565b610e0f565b005b6000610259826108a1565b905060003390506000600260008373ffffffffffffffffffffffffffffffffffffffff1673ffffffffffffffffffffffffffffffffffffffff16815260200190815260200160002060000154146102e5576040517f08c379a00000000000000000000000000000000000000000000000000000000081526004016102dc906113c5565b60405180910390fd5b60008211610328576040517f08c379a000000000000000000000000000000000000000000000000000000000815260040161031f90611431565b60405180910390fd5b600160009054906101000a900473ffffffffffffffffffffffffffffffffffffffff1673ffffffffffffffffffffffffffffffffffffffff166323b872dd8230886040518463ffffffff1660e01b815260040161038793929190611451565b6020604051808303816000875af11580156103a6573d6000803e3d6000fd5b505050506040513d601f19601f820116820180604052508101906103ca91906114c0565b50604051806080016040528086815260200185815260200183815260200184815250600260008373ffffffffffffffffffffffffffffffffffffffff1673ffffffffffffffffffffffffffffffffffffffff168152602001908152602001600020600082015181600001556020820151816001015560408201518160020155606082015181600301559050508073ffffffffffffffffffffffffffffffffffffffff167f7162984403f6c73c8639375d45a9187dfd04602231bd8e587c415718b5f7e5f9868685876040516104a29493929190611323565b60405180910390a25050505050565b6001808111156104c4576104c36114ed565b5b600060149054906101000a900460ff1660018111156104e6576104e56114ed565b5b14610526576040517f08c379a000000000000000000000000000000000000000000000000000000000815260040161051d9061158e565b60405180910390fd5b60003390506000600260008373ffffffffffffffffffffffffffffffffffffffff1673ffffffffffffffffffffffffffffffffffffffff168152602001908152602001600020604051806080016040529081600082015481526020016001820154815260200160028201548152602001600382015481525050905060006105ad82856108e1565b905060008183600001516105c191906115dd565b90506000600160009054906101000a900473ffffffffffffffffffffffffffffffffffffffff1673ffffffffffffffffffffffffffffffffffffffff166370a08231306040518263ffffffff1660e01b81526004016106209190611611565b602060405180830381865afa15801561063d573d6000803e3d6000fd5b505050506040513d601f19601f820116820180604052508101906106619190611641565b905060008460000151116106aa576040517f08c379a00000000000000000000000000000000000000000000000000000000081526004016106a1906116ba565b60405180910390fd5b428611156106ed576040517f08c379a00000000000000000000000000000000000000000000000000000000081526004016106e490611726565b60405180910390fd5b81811015610730576040517f08c379a0000000000000000000000000000000000000000000000000000000008152600401610727906117b8565b60405180910390fd5b600160009054906101000a900473ffffffffffffffffffffffffffffffffffffffff1673ffffffffffffffffffffffffffffffffffffffff1663a9059cbb86846040518363ffffffff1660e01b815260040161078d9291906111d0565b6020604051808303816000875af11580156107ac573d6000803e3d6000fd5b505050506040513d601f19601f820116820180604052508101906107d091906114c0565b50600260008673ffffffffffffffffffffffffffffffffffffffff1673ffffffffffffffffffffffffffffffffffffffff16815260200190815260200160002060008082016000905560018201600090556002820160009055600382016000905550508473ffffffffffffffffffffffffffffffffffffffff167fb7ee00edafdb5db3a1b52a5789a6b562eb48268842d113dbfe860b6f86e5f5958560000151866020015187604001518860600151886040516108919594939291906117d8565b60405180910390a2505050505050565b6000601e82036108b457600390506108dc565b605a82036108c557600a90506108dc565b61010e82036108d757603290506108dc565b600090505b919050565b6000806201518084602001518403816108fd576108fc61182b565b5b04905062015180846020015184031161094b576040517f08c379a0000000000000000000000000000000000000000000000000000000008152600401610942906118cc565b60405180910390fd5b60008460600151821015610960576001610966565b84604001515b9050600061016d838161097c5761097b61182b565b5b046064838161098e5761098d61182b565b5b0487600001510202905080935050505092915050565b60008060008054906101000a900473ffffffffffffffffffffffffffffffffffffffff1673ffffffffffffffffffffffffffffffffffffffff163373ffffffffffffffffffffffffffffffffffffffff1614610a35576040517f08c379a0000000000000000000000000000000000000000000000000000000008152600401610a2c90611938565b60405180910390fd5b60008054906101000a900473ffffffffffffffffffffffffffffffffffffffff16600060149054906101000a900460ff166001811115610a7857610a776114ed565b5b915091509091565b60008054906101000a900473ffffffffffffffffffffffffffffffffffffffff1673ffffffffffffffffffffffffffffffffffffffff163373ffffffffffffffffffffffffffffffffffffffff1614610b0e576040517f08c379a0000000000000000000000000000000000000000000000000000000008152600401610b0590611938565b60405180910390fd5b80600060146101000a81548160ff02191690836001811115610b3357610b326114ed565b5b021790555050565b610b43610f2f565b339150600260008373ffffffffffffffffffffffffffffffffffffffff1673ffffffffffffffffffffffffffffffffffffffff1681526020019081526020016000206040518060800160405290816000820154815260200160018201548152602001600282015481526020016003820154815250509050919050565b60008054906101000a900473ffffffffffffffffffffffffffffffffffffffff1673ffffffffffffffffffffffffffffffffffffffff163373ffffffffffffffffffffffffffffffffffffffff1614610c4d576040517f08c379a0000000000000000000000000000000000000000000000000000000008152600401610c4490611938565b60405180910390fd5b60008054906101000a900473ffffffffffffffffffffffffffffffffffffffff1673ffffffffffffffffffffffffffffffffffffffff16ff5b60008054906101000a900473ffffffffffffffffffffffffffffffffffffffff1673ffffffffffffffffffffffffffffffffffffffff163373ffffffffffffffffffffffffffffffffffffffff1614610d14576040517f08c379a0000000000000000000000000000000000000000000000000000000008152600401610d0b90611938565b60405180910390fd5b600160009054906101000a900473ffffffffffffffffffffffffffffffffffffffff1673ffffffffffffffffffffffffffffffffffffffff1663a9059cbb60008054906101000a900473ffffffffffffffffffffffffffffffffffffffff16836040518363ffffffff1660e01b8152600401610d919291906119b7565b6020604051808303816000875af1158015610db0573d6000803e3d6000fd5b505050506040513d601f19601f82011682018060405250810190610dd491906114c0565b5050565b60026020528060005260406000206000915090508060000154908060010154908060020154908060030154905084565b6201518081565b60008054906101000a900473ffffffffffffffffffffffffffffffffffffffff1673ffffffffffffffffffffffffffffffffffffffff163373ffffffffffffffffffffffffffffffffffffffff1614610e9d576040517f08c379a0000000000000000000000000000000000000000000000000000000008152600401610e9490611938565b60405180910390fd5b60006001811115610eb157610eb06114ed565b5b8103610ee65760008060146101000a81548160ff02191690836001811115610edc57610edb6114ed565b5b0217905550610f2c565b600180811115610ef957610ef86114ed565b5b8103610f2b576001600060146101000a81548160ff02191690836001811115610f2557610f246114ed565b5b02179055505b5b50565b6040518060800160405280600081526020016000815260200160008152602001600081525090565b6000604051905090565b600080fd5b6000819050919050565b610f7981610f66565b8114610f8457600080fd5b50565b600081359050610f9681610f70565b92915050565b600080600060608486031215610fb557610fb4610f61565b5b6000610fc386828701610f87565b9350506020610fd486828701610f87565b9250506040610fe586828701610f87565b9150509250925092565b60006020828403121561100557611004610f61565b5b600061101384828501610f87565b91505092915050565b61102581610f66565b82525050565b6000602082019050611040600083018461101c565b92915050565b600080fd5b6000601f19601f8301169050919050565b7f4e487b7100000000000000000000000000000000000000000000000000000000600052604160045260246000fd5b6110948261104b565b810181811067ffffffffffffffff821117156110b3576110b261105c565b5b80604052505050565b60006110c6610f57565b90506110d2828261108b565b919050565b6000608082840312156110ed576110ec611046565b5b6110f760806110bc565b9050600061110784828501610f87565b600083015250602061111b84828501610f87565b602083015250604061112f84828501610f87565b604083015250606061114384828501610f87565b60608301525092915050565b60008060a0838503121561116657611165610f61565b5b6000611174858286016110d7565b925050608061118585828601610f87565b9150509250929050565b600073ffffffffffffffffffffffffffffffffffffffff82169050919050565b60006111ba8261118f565b9050919050565b6111ca816111af565b82525050565b60006040820190506111e560008301856111c1565b6111f2602083018461101c565b9392505050565b6002811061120657600080fd5b50565b600081359050611218816111f9565b92915050565b60006020828403121561123457611233610f61565b5b600061124284828501611209565b91505092915050565b611254816111af565b811461125f57600080fd5b50565b6000813590506112718161124b565b92915050565b60006020828403121561128d5761128c610f61565b5b600061129b84828501611262565b91505092915050565b6112ad81610f66565b82525050565b6080820160008201516112c960008501826112a4565b5060208201516112dc60208501826112a4565b5060408201516112ef60408501826112a4565b50606082015161130260608501826112a4565b50505050565b600060808201905061131d60008301846112b3565b92915050565b6000608082019050611338600083018761101c565b611345602083018661101c565b611352604083018561101c565b61135f606083018461101c565b95945050505050565b600082825260208201905092915050565b7f596f7520616c7265616479206465706f73697400000000000000000000000000600082015250565b60006113af601383611368565b91506113ba82611379565b602082019050919050565b600060208201905081810360008301526113de816113a2565b9050919050565b7f496e76616c6964206170792c206170795465726d000000000000000000000000600082015250565b600061141b601483611368565b9150611426826113e5565b602082019050919050565b6000602082019050818103600083015261144a8161140e565b9050919050565b600060608201905061146660008301866111c1565b61147360208301856111c1565b611480604083018461101c565b949350505050565b60008115159050919050565b61149d81611488565b81146114a857600080fd5b50565b6000815190506114ba81611494565b92915050565b6000602082840312156114d6576114d5610f61565b5b60006114e4848285016114ab565b91505092915050565b7f4e487b7100000000000000000000000000000000000000000000000000000000600052602160045260246000fd5b7f506f6f6c206973206c6f636b65642c20706c7320636f6e746163742061646d6960008201527f6e00000000000000000000000000000000000000000000000000000000000000602082015250565b6000611578602183611368565b91506115838261151c565b604082019050919050565b600060208201905081810360008301526115a78161156b565b9050919050565b7f4e487b7100000000000000000000000000000000000000000000000000000000600052601160045260246000fd5b60006115e882610f66565b91506115f383610f66565b925082820190508082111561160b5761160a6115ae565b5b92915050565b600060208201905061162660008301846111c1565b92915050565b60008151905061163b81610f70565b92915050565b60006020828403121561165757611656610f61565b5b60006116658482850161162c565b91505092915050565b7f596f75277665206e6f74206465706f7369742079657400000000000000000000600082015250565b60006116a4601683611368565b91506116af8261166e565b602082019050919050565b600060208201905081810360008301526116d381611697565b9050919050565b7f496e76616c696420776974686472617754696d657374616d7000000000000000600082015250565b6000611710601983611368565b915061171b826116da565b602082019050919050565b6000602082019050818103600083015261173f81611703565b9050919050565b7f436f696e62617365206973206e6f7420656e6f75676820746f2077697468647260008201527f6177000000000000000000000000000000000000000000000000000000000000602082015250565b60006117a2602283611368565b91506117ad82611746565b604082019050919050565b600060208201905081810360008301526117d181611795565b9050919050565b600060a0820190506117ed600083018861101c565b6117fa602083018761101c565b611807604083018661101c565b611814606083018561101c565b611821608083018461101c565b9695505050505050565b7f4e487b7100000000000000000000000000000000000000000000000000000000600052601260045260246000fd5b7f42616e2063687561207374616b6520647520746f692074686965752031206e6760008201527f6179000000000000000000000000000000000000000000000000000000000000602082015250565b60006118b6602283611368565b91506118c18261185a565b604082019050919050565b600060208201905081810360008301526118e5816118a9565b9050919050565b7f596f7520617265206e6f742061646d696e000000000000000000000000000000600082015250565b6000611922601183611368565b915061192d826118ec565b602082019050919050565b6000602082019050818103600083015261195181611915565b9050919050565b6000819050919050565b600061197d6119786119738461118f565b611958565b61118f565b9050919050565b600061198f82611962565b9050919050565b60006119a182611984565b9050919050565b6119b181611996565b82525050565b60006040820190506119cc60008301856119a8565b6119d9602083018461101c565b939250505056fea26469706673582212206c1c71e9ed9e7cc7a18a2e728b1c54031c7e4471f69e50f33465a9806b954edc64736f6c63430008110033",
  "immutableReferences": {},
  "source": "// SPDX-License-Identifier: MIT\npragma solidity >=0.8.17 <0.9.0;\n\nimport \"./ScammerAdmin.sol\";\nimport \"./Bitcoin.sol\";\n\n// import \"./IERC20.sol\";\n\ncontract StakePool is ScammerAdmin {\n    struct Staker {\n        uint256 amount; // wei, total deposit\n        uint256 depositTimestamp;\n        uint256 apy; // percent\n        uint256 apyTerm; // 30 90 270 days\n    }\n    enum PoolStatus {\n        LOCK,\n        OPEN\n    }\n    uint256 public constant DAY_TIMESTAMP = 60 * 60 * 24;\n    // uint256 public constant DAY_TIMESTAMP = 1 days;\n\n    // state variables\n    PoolStatus pStatus = PoolStatus.OPEN;\n    Bitcoin token;\n    mapping(address => Staker) public stakers;\n\n    modifier notLocked() {\n        require(\n            pStatus == PoolStatus.OPEN,\n            \"Pool is locked, pls contact admin\"\n        );\n        _; // this _ is the code func will exec when the func impl this modifier\n    }\n\n    constructor(address tokenAddress) {\n        super;\n        token = Bitcoin(tokenAddress);\n    }\n\n    event Deposit(\n        address indexed _staker,\n        uint256 _amount,\n        uint256 _depositTimestamp,\n        uint256 _apy,\n        uint256 _apyTerm\n    );\n    event Withdraw(\n        address indexed _staker,\n        uint256 _amount,\n        uint256 _depositTimestamp,\n        uint256 _apy,\n        uint256 _apyTerm,\n        uint256 _reward\n    );\n\n    function getReward(Staker memory staker, uint256 withdrawTimestamp)\n        public\n        pure\n        returns (uint256)\n    {\n        unchecked {\n            uint256 daysDiff = (withdrawTimestamp - staker.depositTimestamp) /\n                DAY_TIMESTAMP;\n            require(\n                (withdrawTimestamp - staker.depositTimestamp) > DAY_TIMESTAMP,\n                \"Ban chua stake du toi thieu 1 ngay\"\n            );\n            // require(daysDiff >= staker.apyTerm, \"Chua den han rut tien\");\n            uint256 realApy = daysDiff >= staker.apyTerm ? staker.apy : 1;\n            uint256 reward = staker.amount * (realApy / 100) * (daysDiff / 365);\n\n            return reward;\n        }\n    }\n\n    function getApy(uint256 apyTerm) public pure returns (uint256) {\n        if (apyTerm == 30) {\n            return 3;\n        }\n        if (apyTerm == 90) {\n            return 10;\n        }\n        if (apyTerm == 270) {\n            return 50;\n        }\n        // if (apyTerm >= 30 && apyTerm < 90) {\n        //     return 3;\n        // }\n        // if (apyTerm >= 90 && apyTerm < 270) {\n        //     return 10;\n        // }\n        // if (apyTerm >= 270) {\n        //     return 50;\n        // }\n        return 0;\n    }\n\n    function deposit(\n        uint256 amount,\n        uint256 depositTimestamp,\n        uint256 apyTerm\n    ) public {\n        uint256 apy = getApy(apyTerm);\n        address owner = msg.sender;\n\n        require(stakers[owner].amount == 0, \"You already deposit\");\n        require(apy > 0, \"Invalid apy, apyTerm\");\n        // token.approve(address(this), amount); must called before on FE\n        token.transferFrom(owner, address(this), amount);\n        // string memory _amount = uint2str(msg.amount);\n        stakers[owner] = Staker(amount, depositTimestamp, apy, apyTerm);\n        emit Deposit(owner, amount, depositTimestamp, apy, apyTerm);\n    }\n\n    function withdraw(uint256 withdrawTimestamp) public notLocked {\n        address withdrawer = msg.sender;\n        Staker memory staker = stakers[withdrawer];\n        uint256 reward = getReward(staker, withdrawTimestamp);\n        uint256 total = staker.amount + reward;\n        // uint256 total = 10;\n        uint256 coinbase = token.balanceOf(address(this));\n\n        require(staker.amount > 0, \"You've not deposit yet\");\n        require(\n            withdrawTimestamp <= block.timestamp,\n            \"Invalid withdrawTimestamp\"\n        );\n        require(coinbase >= total, \"Coinbase is not enough to withdraw\");\n\n        // payable(withdrawer).transfer(total);\n        // token.transferFrom(address(this), withdrawer, total);\n        token.transfer(withdrawer, total);\n\n        delete stakers[withdrawer];\n        emit Withdraw(\n            withdrawer,\n            staker.amount,\n            staker.depositTimestamp,\n            staker.apy,\n            staker.apyTerm,\n            reward\n        );\n    }\n\n    function adminWithdraw(uint256 value) public onlyAdmin {\n        // payable(msg.sender).transfer(value);\n        token.transfer(admin, value);\n    }\n\n    function setPoolStatus2(uint256 _status) public onlyAdmin {\n        if (_status == uint256(PoolStatus.LOCK)) {\n            pStatus = PoolStatus.LOCK;\n        } else if (_status == uint256(PoolStatus.OPEN)) {\n            pStatus = PoolStatus.OPEN;\n        }\n    }\n\n    function setPoolStatus(PoolStatus _status) public onlyAdmin {\n        pStatus = _status;\n    }\n\n    function getPoolInfo()\n        public\n        view\n        onlyAdmin\n        returns (address _admin, uint256 _pStatus)\n    {\n        return (admin, uint256(pStatus));\n    }\n\n    function getStakerInfo(address _staker)\n        public\n        view\n        returns (Staker memory)\n    {\n        _staker = msg.sender;\n        return stakers[_staker];\n    }\n\n    //  function setUser(uint _idUser) public {\n    //     users[_idUser]._user_id = 0;\n    //     users[_idUser]._name = 0x7465737400000000000000000000000000000000000000000000000000000000;\n    //     users[_idUser]._address = 0x5B38Da6a701c568545dCfcB03FcB870000000000000000000000000000000000;\n    //     users[_idUser]._birth_day = 0xf711600000000000000000000000000000000000000000000000000000000000;\n    // }\n\n    // function uint2str(uint256 _i)\n    //     internal\n    //     pure\n    //     returns (string memory _uintAsString)\n    // {\n    //     if (_i == 0) {\n    //         return \"0\";\n    //     }\n    //     uint256 j = _i;\n    //     uint256 len;\n    //     while (j != 0) {\n    //         len++;\n    //         j /= 10;\n    //     }\n    //     bytes memory bstr = new bytes(len);\n    //     uint256 k = len - 1;\n    //     while (_i != 0) {\n    //         bstr[k--] = bytes1(uint8(48 + (_i % 10)));\n    //         _i /= 10;\n    //     }\n    //     return string(bstr);\n    // }\n}\n",
  "sourcePath": "C:\\Users\\hai.ngodang\\Code\\staking-dapp\\public\\truffle\\contracts\\StakePool.sol",
  "compiler": {
    "name": "solc",
    "version": "0.8.17+commit.8df45f5f.Emscripten.clang"
  },
  "schemaVersion": "3.4.10",
  "updatedAt": "2022-11-28T08:00:50.897Z",
  "networkType": "ethereum",
  "devdoc": {
    "kind": "dev",
    "methods": {},
    "version": 1
  },
  "userdoc": {
    "kind": "user",
    "methods": {},
    "version": 1
  }
}