{
  "contractName": "StakePool",
  "abi": [
    {
      "anonymous": false,
      "inputs": [
        {
          "indexed": true,
          "internalType": "address",
          "name": "_staker",
          "type": "address"
        },
        {
          "indexed": false,
          "internalType": "string",
          "name": "_balance",
          "type": "string"
        },
        {
          "indexed": false,
          "internalType": "uint256",
          "name": "_depositTimestamp",
          "type": "uint256"
        },
        {
          "indexed": false,
          "internalType": "uint256",
          "name": "_apy",
          "type": "uint256"
        },
        {
          "indexed": false,
          "internalType": "uint256",
          "name": "_apyTerm",
          "type": "uint256"
        }
      ],
      "name": "Deposit",
      "type": "event"
    },
    {
      "inputs": [
        {
          "internalType": "address",
          "name": "",
          "type": "address"
        }
      ],
      "name": "stakers",
      "outputs": [
        {
          "internalType": "string",
          "name": "balance",
          "type": "string"
        },
        {
          "internalType": "uint256",
          "name": "depositTimestamp",
          "type": "uint256"
        },
        {
          "internalType": "uint256",
          "name": "apy",
          "type": "uint256"
        },
        {
          "internalType": "uint256",
          "name": "apyTerm",
          "type": "uint256"
        }
      ],
      "stateMutability": "view",
      "type": "function",
      "constant": true
    },
    {
      "inputs": [
        {
          "internalType": "string",
          "name": "_balance",
          "type": "string"
        },
        {
          "internalType": "uint256",
          "name": "_depositTimestamp",
          "type": "uint256"
        },
        {
          "internalType": "uint256",
          "name": "_apy",
          "type": "uint256"
        },
        {
          "internalType": "uint256",
          "name": "_apyTerm",
          "type": "uint256"
        }
      ],
      "name": "deposit",
      "outputs": [],
      "stateMutability": "nonpayable",
      "type": "function"
    },
    {
      "inputs": [
        {
          "internalType": "address",
          "name": "_staker",
          "type": "address"
        }
      ],
      "name": "getStakerInfo",
      "outputs": [
        {
          "components": [
            {
              "internalType": "string",
              "name": "balance",
              "type": "string"
            },
            {
              "internalType": "uint256",
              "name": "depositTimestamp",
              "type": "uint256"
            },
            {
              "internalType": "uint256",
              "name": "apy",
              "type": "uint256"
            },
            {
              "internalType": "uint256",
              "name": "apyTerm",
              "type": "uint256"
            }
          ],
          "internalType": "struct StakePool.Staker",
          "name": "",
          "type": "tuple"
        }
      ],
      "stateMutability": "view",
      "type": "function",
      "constant": true
    }
  ],
  "bytecode": "0x608060405234801561001057600080fd5b50610b0a806100206000396000f3fe608060405234801561001057600080fd5b50600436106100415760003560e01c806350bb9a7514610046578063733bdef0146100625780639168ae7214610092575b600080fd5b610060600480360381019061005b9190610530565b6100c5565b005b61007c60048036038101906100779190610611565b6101b5565b604051610089919061072f565b60405180910390f35b6100ac60048036038101906100a79190610611565b6102c0565b6040516100bc94939291906107aa565b60405180910390f35b6040518060800160405280858152602001848152602001838152602001828152506000803373ffffffffffffffffffffffffffffffffffffffff1673ffffffffffffffffffffffffffffffffffffffff16815260200190815260200160002060008201518160000190816101399190610a02565b506020820151816001015560408201518160020155606082015181600301559050503373ffffffffffffffffffffffffffffffffffffffff167fb8ced0feae0bb0da7bfdf99e35ef56b8f122295255fde12d3a3d3257fa3450eb858585856040516101a794939291906107aa565b60405180910390a250505050565b6101bd610378565b3391506000808373ffffffffffffffffffffffffffffffffffffffff1673ffffffffffffffffffffffffffffffffffffffff16815260200190815260200160002060405180608001604052908160008201805461021990610825565b80601f016020809104026020016040519081016040528092919081815260200182805461024590610825565b80156102925780601f1061026757610100808354040283529160200191610292565b820191906000526020600020905b81548152906001019060200180831161027557829003601f168201915b5050505050815260200160018201548152602001600282015481526020016003820154815250509050919050565b60006020528060005260406000206000915090508060000180546102e390610825565b80601f016020809104026020016040519081016040528092919081815260200182805461030f90610825565b801561035c5780601f106103315761010080835404028352916020019161035c565b820191906000526020600020905b81548152906001019060200180831161033f57829003601f168201915b5050505050908060010154908060020154908060030154905084565b6040518060800160405280606081526020016000815260200160008152602001600081525090565b6000604051905090565b600080fd5b600080fd5b600080fd5b600080fd5b6000601f19601f8301169050919050565b7f4e487b7100000000000000000000000000000000000000000000000000000000600052604160045260246000fd5b610407826103be565b810181811067ffffffffffffffff82111715610426576104256103cf565b5b80604052505050565b60006104396103a0565b905061044582826103fe565b919050565b600067ffffffffffffffff821115610465576104646103cf565b5b61046e826103be565b9050602081019050919050565b82818337600083830152505050565b600061049d6104988461044a565b61042f565b9050828152602081018484840111156104b9576104b86103b9565b5b6104c484828561047b565b509392505050565b600082601f8301126104e1576104e06103b4565b5b81356104f184826020860161048a565b91505092915050565b6000819050919050565b61050d816104fa565b811461051857600080fd5b50565b60008135905061052a81610504565b92915050565b6000806000806080858703121561054a576105496103aa565b5b600085013567ffffffffffffffff811115610568576105676103af565b5b610574878288016104cc565b94505060206105858782880161051b565b93505060406105968782880161051b565b92505060606105a78782880161051b565b91505092959194509250565b600073ffffffffffffffffffffffffffffffffffffffff82169050919050565b60006105de826105b3565b9050919050565b6105ee816105d3565b81146105f957600080fd5b50565b60008135905061060b816105e5565b92915050565b600060208284031215610627576106266103aa565b5b6000610635848285016105fc565b91505092915050565b600081519050919050565b600082825260208201905092915050565b60005b8381101561067857808201518184015260208101905061065d565b60008484015250505050565b600061068f8261063e565b6106998185610649565b93506106a981856020860161065a565b6106b2816103be565b840191505092915050565b6106c6816104fa565b82525050565b600060808301600083015184820360008601526106e98282610684565b91505060208301516106fe60208601826106bd565b50604083015161071160408601826106bd565b50606083015161072460608601826106bd565b508091505092915050565b6000602082019050818103600083015261074981846106cc565b905092915050565b600082825260208201905092915050565b600061076d8261063e565b6107778185610751565b935061078781856020860161065a565b610790816103be565b840191505092915050565b6107a4816104fa565b82525050565b600060808201905081810360008301526107c48187610762565b90506107d3602083018661079b565b6107e0604083018561079b565b6107ed606083018461079b565b95945050505050565b7f4e487b7100000000000000000000000000000000000000000000000000000000600052602260045260246000fd5b6000600282049050600182168061083d57607f821691505b6020821081036108505761084f6107f6565b5b50919050565b60008190508160005260206000209050919050565b60006020601f8301049050919050565b600082821b905092915050565b6000600883026108b87fffffffffffffffffffffffffffffffffffffffffffffffffffffffffffffffff8261087b565b6108c2868361087b565b95508019841693508086168417925050509392505050565b6000819050919050565b60006108ff6108fa6108f5846104fa565b6108da565b6104fa565b9050919050565b6000819050919050565b610919836108e4565b61092d61092582610906565b848454610888565b825550505050565b600090565b610942610935565b61094d818484610910565b505050565b5b818110156109715761096660008261093a565b600181019050610953565b5050565b601f8211156109b65761098781610856565b6109908461086b565b8101602085101561099f578190505b6109b36109ab8561086b565b830182610952565b50505b505050565b600082821c905092915050565b60006109d9600019846008026109bb565b1980831691505092915050565b60006109f283836109c8565b9150826002028217905092915050565b610a0b8261063e565b67ffffffffffffffff811115610a2457610a236103cf565b5b610a2e8254610825565b610a39828285610975565b600060209050601f831160018114610a6c5760008415610a5a578287015190505b610a6485826109e6565b865550610acc565b601f198416610a7a86610856565b60005b82811015610aa257848901518255600182019150602085019450602081019050610a7d565b86831015610abf5784890151610abb601f8916826109c8565b8355505b6001600288020188555050505b50505050505056fea2646970667358221220f9dde2dd513d383dbc5e7420ddf22fca226a4a6b730c9014643af5603bcf598e64736f6c63430008110033",
  "immutableReferences": {},
  "source": "// SPDX-License-Identifier: MIT\npragma solidity >=0.8.17 <0.9.0;\n\ncontract StakePool {\n    struct Staker {\n        string balance; // float, total deposit\n        uint256 depositTimestamp;\n        uint256 apy; // percent\n        uint256 apyTerm; // months\n    }\n\n    // state variables\n    mapping(address => Staker) public stakers;\n\n    // constructor() public {}\n\n    event Deposit(\n        address indexed _staker,\n        string _balance,\n        uint256 _depositTimestamp,\n        uint256 _apy,\n        uint256 _apyTerm\n    );\n\n    // stake1, 3, 9 thng\n    // stake1 l 3%, stake3 l 10%, stake 9 l 50% nh\n    function deposit(\n        string memory _balance,\n        uint256 _depositTimestamp,\n        uint256 _apy,\n        uint256 _apyTerm\n    ) public {\n        // stakers[msg.sender] = Staker(\"2.3\", 1668928830000, 10, 3);\n        stakers[msg.sender] = Staker(\n            _balance,\n            _depositTimestamp,\n            _apy,\n            _apyTerm\n        );\n        emit Deposit(msg.sender, _balance, _depositTimestamp, _apy, _apyTerm);\n    }\n\n    //  function setUser(uint _idUser) public {\n    //     users[_idUser]._user_id = 0;\n    //     users[_idUser]._name = 0x7465737400000000000000000000000000000000000000000000000000000000;\n    //     users[_idUser]._address = 0x5B38Da6a701c568545dCfcB03FcB870000000000000000000000000000000000;\n    //     users[_idUser]._birth_day = 0xf711600000000000000000000000000000000000000000000000000000000000;\n    // }\n\n    function getStakerInfo(address _staker)\n        public\n        view\n        returns (Staker memory)\n    {\n        _staker = msg.sender;\n        return stakers[_staker];\n    }\n}\n",
  "sourcePath": "G:\\Github Repo\\staking-dapp\\public\\truffle\\contracts\\StakePool.sol",
  "compiler": {
    "name": "solc",
    "version": "0.8.17+commit.8df45f5f.Emscripten.clang"
  },
  "schemaVersion": "3.4.10",
  "updatedAt": "2022-11-20T07:39:57.321Z",
  "networkType": "ethereum",
  "devdoc": {
    "kind": "dev",
    "methods": {},
    "version": 1
  },
  "userdoc": {
    "kind": "user",
    "methods": {},
    "version": 1
  }
}