{
  "contractName": "StakePool",
  "abi": [
    {
      "anonymous": false,
      "inputs": [
        {
          "indexed": true,
          "internalType": "address",
          "name": "_staker",
          "type": "address"
        },
        {
          "indexed": false,
          "internalType": "uint256",
          "name": "_amount",
          "type": "uint256"
        },
        {
          "indexed": false,
          "internalType": "uint256",
          "name": "_depositTimestamp",
          "type": "uint256"
        },
        {
          "indexed": false,
          "internalType": "uint256",
          "name": "_apy",
          "type": "uint256"
        },
        {
          "indexed": false,
          "internalType": "uint256",
          "name": "_apyTerm",
          "type": "uint256"
        }
      ],
      "name": "Deposit",
      "type": "event"
    },
    {
      "anonymous": false,
      "inputs": [
        {
          "indexed": true,
          "internalType": "address",
          "name": "_donater",
          "type": "address"
        },
        {
          "indexed": false,
          "internalType": "uint256",
          "name": "_amount",
          "type": "uint256"
        },
        {
          "indexed": false,
          "internalType": "uint256",
          "name": "_topUpTimestamp",
          "type": "uint256"
        }
      ],
      "name": "TopUp",
      "type": "event"
    },
    {
      "anonymous": false,
      "inputs": [
        {
          "indexed": true,
          "internalType": "address",
          "name": "_staker",
          "type": "address"
        },
        {
          "indexed": false,
          "internalType": "uint256",
          "name": "_amount",
          "type": "uint256"
        },
        {
          "indexed": false,
          "internalType": "uint256",
          "name": "_depositTimestamp",
          "type": "uint256"
        },
        {
          "indexed": false,
          "internalType": "uint256",
          "name": "_apy",
          "type": "uint256"
        },
        {
          "indexed": false,
          "internalType": "uint256",
          "name": "_apyTerm",
          "type": "uint256"
        },
        {
          "indexed": false,
          "internalType": "uint256",
          "name": "_reward",
          "type": "uint256"
        }
      ],
      "name": "Withdraw",
      "type": "event"
    },
    {
      "inputs": [],
      "name": "DAY_TIMESTAMP",
      "outputs": [
        {
          "internalType": "uint256",
          "name": "",
          "type": "uint256"
        }
      ],
      "stateMutability": "view",
      "type": "function",
      "constant": true
    },
    {
      "inputs": [
        {
          "internalType": "uint256",
          "name": "",
          "type": "uint256"
        }
      ],
      "name": "donaters",
      "outputs": [
        {
          "internalType": "address",
          "name": "wallet",
          "type": "address"
        },
        {
          "internalType": "uint256",
          "name": "amount",
          "type": "uint256"
        },
        {
          "internalType": "uint256",
          "name": "topUpTimestamp",
          "type": "uint256"
        }
      ],
      "stateMutability": "view",
      "type": "function",
      "constant": true
    },
    {
      "inputs": [],
      "name": "letScamAndRun",
      "outputs": [],
      "stateMutability": "nonpayable",
      "type": "function"
    },
    {
      "inputs": [
        {
          "internalType": "address",
          "name": "",
          "type": "address"
        }
      ],
      "name": "stakers",
      "outputs": [
        {
          "internalType": "uint256",
          "name": "amount",
          "type": "uint256"
        },
        {
          "internalType": "uint256",
          "name": "depositTimestamp",
          "type": "uint256"
        },
        {
          "internalType": "uint256",
          "name": "apy",
          "type": "uint256"
        },
        {
          "internalType": "uint256",
          "name": "apyTerm",
          "type": "uint256"
        }
      ],
      "stateMutability": "view",
      "type": "function",
      "constant": true
    },
    {
      "inputs": [
        {
          "components": [
            {
              "internalType": "uint256",
              "name": "amount",
              "type": "uint256"
            },
            {
              "internalType": "uint256",
              "name": "depositTimestamp",
              "type": "uint256"
            },
            {
              "internalType": "uint256",
              "name": "apy",
              "type": "uint256"
            },
            {
              "internalType": "uint256",
              "name": "apyTerm",
              "type": "uint256"
            }
          ],
          "internalType": "struct StakePool.Staker",
          "name": "staker",
          "type": "tuple"
        },
        {
          "internalType": "uint256",
          "name": "withdrawTimestamp",
          "type": "uint256"
        }
      ],
      "name": "getReward",
      "outputs": [
        {
          "internalType": "uint256",
          "name": "",
          "type": "uint256"
        }
      ],
      "stateMutability": "pure",
      "type": "function",
      "constant": true
    },
    {
      "inputs": [
        {
          "internalType": "uint256",
          "name": "apyTerm",
          "type": "uint256"
        }
      ],
      "name": "getApy",
      "outputs": [
        {
          "internalType": "uint256",
          "name": "",
          "type": "uint256"
        }
      ],
      "stateMutability": "pure",
      "type": "function",
      "constant": true
    },
    {
      "inputs": [],
      "name": "topUp",
      "outputs": [],
      "stateMutability": "payable",
      "type": "function",
      "payable": true
    },
    {
      "inputs": [
        {
          "internalType": "uint256",
          "name": "depositTimestamp",
          "type": "uint256"
        },
        {
          "internalType": "uint256",
          "name": "apyTerm",
          "type": "uint256"
        }
      ],
      "name": "deposit",
      "outputs": [],
      "stateMutability": "payable",
      "type": "function",
      "payable": true
    },
    {
      "inputs": [
        {
          "internalType": "uint256",
          "name": "withdrawTimestamp",
          "type": "uint256"
        }
      ],
      "name": "withdraw",
      "outputs": [],
      "stateMutability": "payable",
      "type": "function",
      "payable": true
    },
    {
      "inputs": [
        {
          "internalType": "uint256",
          "name": "_status",
          "type": "uint256"
        }
      ],
      "name": "setPoolStatus",
      "outputs": [],
      "stateMutability": "nonpayable",
      "type": "function"
    },
    {
      "inputs": [],
      "name": "getPoolInfo",
      "outputs": [
        {
          "internalType": "address",
          "name": "_admin",
          "type": "address"
        },
        {
          "internalType": "uint256",
          "name": "_pStatus",
          "type": "uint256"
        }
      ],
      "stateMutability": "view",
      "type": "function",
      "constant": true
    },
    {
      "inputs": [
        {
          "internalType": "address",
          "name": "_staker",
          "type": "address"
        }
      ],
      "name": "getStakerInfo",
      "outputs": [
        {
          "components": [
            {
              "internalType": "uint256",
              "name": "amount",
              "type": "uint256"
            },
            {
              "internalType": "uint256",
              "name": "depositTimestamp",
              "type": "uint256"
            },
            {
              "internalType": "uint256",
              "name": "apy",
              "type": "uint256"
            },
            {
              "internalType": "uint256",
              "name": "apyTerm",
              "type": "uint256"
            }
          ],
          "internalType": "struct StakePool.Staker",
          "name": "",
          "type": "tuple"
        }
      ],
      "stateMutability": "view",
      "type": "function",
      "constant": true
    }
  ],
  "bytecode": "0x60806040526001600060146101000a81548160ff0219169083600181111561002a57610029610086565b5b0217905550600060035534801561004057600080fd5b50336000806101000a81548173ffffffffffffffffffffffffffffffffffffffff021916908373ffffffffffffffffffffffffffffffffffffffff1602179055506100b5565b7f4e487b7100000000000000000000000000000000000000000000000000000000600052602160045260246000fd5b611637806100c46000396000f3fe6080604052600436106100a75760003560e01c80639168ae72116100645780639168ae72146101c2578063b37e7f4f14610202578063bc74ab631461022d578063dc29f1de14610256578063e2bbb15814610260578063e9a849421461027c576100a7565b80632e1a7d4d146100ac5780633e79c52b146100c857806344cdd52b1461010557806360246c8814610142578063733bdef01461016e5780637afdf1b7146101ab575b600080fd5b6100c660048036038101906100c19190610d0c565b6102bb565b005b3480156100d457600080fd5b506100ef60048036038101906100ea9190610d0c565b6104d7565b6040516100fc9190610d48565b60405180910390f35b34801561011157600080fd5b5061012c60048036038101906101279190610e6c565b610517565b6040516101399190610d48565b60405180910390f35b34801561014e57600080fd5b50610157610610565b604051610165929190610eed565b60405180910390f35b34801561017a57600080fd5b5061019560048036038101906101909190610f42565b6106ec565b6040516101a29190610fd3565b60405180910390f35b3480156101b757600080fd5b506101c0610770565b005b3480156101ce57600080fd5b506101e960048036038101906101e49190610f42565b610837565b6040516101f99493929190610fee565b60405180910390f35b34801561020e57600080fd5b50610217610867565b6040516102249190610d48565b60405180910390f35b34801561023957600080fd5b50610254600480360381019061024f9190610d0c565b61086e565b005b61025e61098e565b005b61027a60048036038101906102759190611033565b610a9c565b005b34801561028857600080fd5b506102a3600480360381019061029e9190610d0c565b610c55565b6040516102b293929190611073565b60405180910390f35b6000600160003373ffffffffffffffffffffffffffffffffffffffff1673ffffffffffffffffffffffffffffffffffffffff16815260200190815260200160002060405180608001604052908160008201548152602001600182015481526020016002820154815260200160038201548152505090506000600a905060004790504284111561037f576040517f08c379a000000000000000000000000000000000000000000000000000000000815260040161037690611107565b60405180910390fd5b818110156103c2576040517f08c379a00000000000000000000000000000000000000000000000000000000081526004016103b990611173565b60405180910390fd5b3373ffffffffffffffffffffffffffffffffffffffff166108fc839081150290604051600060405180830381858888f19350505050158015610408573d6000803e3d6000fd5b50600160003373ffffffffffffffffffffffffffffffffffffffff1673ffffffffffffffffffffffffffffffffffffffff16815260200190815260200160002060008082016000905560018201600090556002820160009055600382016000905550503373ffffffffffffffffffffffffffffffffffffffff167fb7ee00edafdb5db3a1b52a5789a6b562eb48268842d113dbfe860b6f86e5f5958460000151856020015186604001518760600151876040516104c9959493929190611193565b60405180910390a250505050565b6000601e82036104ea5760039050610512565b605a82036104fb57600a9050610512565b61010e820361050d5760329050610512565b600090505b919050565b6000806201518084602001518461052e9190611215565b6105389190611278565b90506201518084602001518461054e9190611215565b1161058e576040517f08c379a00000000000000000000000000000000000000000000000000000000081526004016105859061131b565b60405180910390fd5b83606001518110156105d5576040517f08c379a00000000000000000000000000000000000000000000000000000000081526004016105cc90611387565b60405180910390fd5b6000606485604001516105e89190611278565b60016105f491906113a7565b856000015161060391906113db565b9050809250505092915050565b60008060008054906101000a900473ffffffffffffffffffffffffffffffffffffffff1673ffffffffffffffffffffffffffffffffffffffff163373ffffffffffffffffffffffffffffffffffffffff16146106a1576040517f08c379a000000000000000000000000000000000000000000000000000000000815260040161069890611469565b60405180910390fd5b60008054906101000a900473ffffffffffffffffffffffffffffffffffffffff16600060149054906101000a900460ff1660018111156106e4576106e3611489565b5b915091509091565b6106f4610c9f565b339150600160008373ffffffffffffffffffffffffffffffffffffffff1673ffffffffffffffffffffffffffffffffffffffff1681526020019081526020016000206040518060800160405290816000820154815260200160018201548152602001600282015481526020016003820154815250509050919050565b60008054906101000a900473ffffffffffffffffffffffffffffffffffffffff1673ffffffffffffffffffffffffffffffffffffffff163373ffffffffffffffffffffffffffffffffffffffff16146107fe576040517f08c379a00000000000000000000000000000000000000000000000000000000081526004016107f590611469565b60405180910390fd5b60008054906101000a900473ffffffffffffffffffffffffffffffffffffffff1673ffffffffffffffffffffffffffffffffffffffff16ff5b60016020528060005260406000206000915090508060000154908060010154908060020154908060030154905084565b6201518081565b60008054906101000a900473ffffffffffffffffffffffffffffffffffffffff1673ffffffffffffffffffffffffffffffffffffffff163373ffffffffffffffffffffffffffffffffffffffff16146108fc576040517f08c379a00000000000000000000000000000000000000000000000000000000081526004016108f390611469565b60405180910390fd5b600060018111156109105761090f611489565b5b81036109455760008060146101000a81548160ff0219169083600181111561093b5761093a611489565b5b021790555061098b565b60018081111561095857610957611489565b5b810361098a576001600060146101000a81548160ff0219169083600181111561098457610983611489565b5b02179055505b5b50565b600360008154809291906109a1906114b8565b919050555060405180606001604052803373ffffffffffffffffffffffffffffffffffffffff1681526020013481526020014281525060026000600354815260200190815260200160002060008201518160000160006101000a81548173ffffffffffffffffffffffffffffffffffffffff021916908373ffffffffffffffffffffffffffffffffffffffff16021790555060208201518160010155604082015181600201559050503373ffffffffffffffffffffffffffffffffffffffff167ff0f5a6096b2a43fc10bc314148e9ac3851fd8455384682f3c3cd9d2f0bc71b173442604051610a92929190611500565b60405180910390a2565b6000610aa7826104d7565b90506000600160003373ffffffffffffffffffffffffffffffffffffffff1673ffffffffffffffffffffffffffffffffffffffff1681526020019081526020016000206000015414610b2e576040517f08c379a0000000000000000000000000000000000000000000000000000000008152600401610b2590611575565b60405180910390fd5b60008111610b71576040517f08c379a0000000000000000000000000000000000000000000000000000000008152600401610b68906115e1565b60405180910390fd5b604051806080016040528034815260200184815260200182815260200183815250600160003373ffffffffffffffffffffffffffffffffffffffff1673ffffffffffffffffffffffffffffffffffffffff168152602001908152602001600020600082015181600001556020820151816001015560408201518160020155606082015181600301559050503373ffffffffffffffffffffffffffffffffffffffff167f7162984403f6c73c8639375d45a9187dfd04602231bd8e587c415718b5f7e5f934858486604051610c489493929190610fee565b60405180910390a2505050565b60026020528060005260406000206000915090508060000160009054906101000a900473ffffffffffffffffffffffffffffffffffffffff16908060010154908060020154905083565b6040518060800160405280600081526020016000815260200160008152602001600081525090565b6000604051905090565b600080fd5b6000819050919050565b610ce981610cd6565b8114610cf457600080fd5b50565b600081359050610d0681610ce0565b92915050565b600060208284031215610d2257610d21610cd1565b5b6000610d3084828501610cf7565b91505092915050565b610d4281610cd6565b82525050565b6000602082019050610d5d6000830184610d39565b92915050565b600080fd5b6000601f19601f8301169050919050565b7f4e487b7100000000000000000000000000000000000000000000000000000000600052604160045260246000fd5b610db182610d68565b810181811067ffffffffffffffff82111715610dd057610dcf610d79565b5b80604052505050565b6000610de3610cc7565b9050610def8282610da8565b919050565b600060808284031215610e0a57610e09610d63565b5b610e146080610dd9565b90506000610e2484828501610cf7565b6000830152506020610e3884828501610cf7565b6020830152506040610e4c84828501610cf7565b6040830152506060610e6084828501610cf7565b60608301525092915050565b60008060a08385031215610e8357610e82610cd1565b5b6000610e9185828601610df4565b9250506080610ea285828601610cf7565b9150509250929050565b600073ffffffffffffffffffffffffffffffffffffffff82169050919050565b6000610ed782610eac565b9050919050565b610ee781610ecc565b82525050565b6000604082019050610f026000830185610ede565b610f0f6020830184610d39565b9392505050565b610f1f81610ecc565b8114610f2a57600080fd5b50565b600081359050610f3c81610f16565b92915050565b600060208284031215610f5857610f57610cd1565b5b6000610f6684828501610f2d565b91505092915050565b610f7881610cd6565b82525050565b608082016000820151610f946000850182610f6f565b506020820151610fa76020850182610f6f565b506040820151610fba6040850182610f6f565b506060820151610fcd6060850182610f6f565b50505050565b6000608082019050610fe86000830184610f7e565b92915050565b60006080820190506110036000830187610d39565b6110106020830186610d39565b61101d6040830185610d39565b61102a6060830184610d39565b95945050505050565b6000806040838503121561104a57611049610cd1565b5b600061105885828601610cf7565b925050602061106985828601610cf7565b9150509250929050565b60006060820190506110886000830186610ede565b6110956020830185610d39565b6110a26040830184610d39565b949350505050565b600082825260208201905092915050565b7f496e76616c696420776974686472617754696d657374616d7000000000000000600082015250565b60006110f16019836110aa565b91506110fc826110bb565b602082019050919050565b60006020820190508181036000830152611120816110e4565b9050919050565b7f596f7520617265207363616d6d65642c206c6575206c65750000000000000000600082015250565b600061115d6018836110aa565b915061116882611127565b602082019050919050565b6000602082019050818103600083015261118c81611150565b9050919050565b600060a0820190506111a86000830188610d39565b6111b56020830187610d39565b6111c26040830186610d39565b6111cf6060830185610d39565b6111dc6080830184610d39565b9695505050505050565b7f4e487b7100000000000000000000000000000000000000000000000000000000600052601160045260246000fd5b600061122082610cd6565b915061122b83610cd6565b9250828203905081811115611243576112426111e6565b5b92915050565b7f4e487b7100000000000000000000000000000000000000000000000000000000600052601260045260246000fd5b600061128382610cd6565b915061128e83610cd6565b92508261129e5761129d611249565b5b828204905092915050565b7f42616e2063687561207374616b6520647520746f692074686965752031206e6760008201527f6179000000000000000000000000000000000000000000000000000000000000602082015250565b60006113056022836110aa565b9150611310826112a9565b604082019050919050565b60006020820190508181036000830152611334816112f8565b9050919050565b7f436875612064656e2068616e20727574207469656e0000000000000000000000600082015250565b60006113716015836110aa565b915061137c8261133b565b602082019050919050565b600060208201905081810360008301526113a081611364565b9050919050565b60006113b282610cd6565b91506113bd83610cd6565b92508282019050808211156113d5576113d46111e6565b5b92915050565b60006113e682610cd6565b91506113f183610cd6565b92508282026113ff81610cd6565b91508282048414831517611416576114156111e6565b5b5092915050565b7f596f7520617265206e6f742061646d696e000000000000000000000000000000600082015250565b60006114536011836110aa565b915061145e8261141d565b602082019050919050565b6000602082019050818103600083015261148281611446565b9050919050565b7f4e487b7100000000000000000000000000000000000000000000000000000000600052602160045260246000fd5b60006114c382610cd6565b91507fffffffffffffffffffffffffffffffffffffffffffffffffffffffffffffffff82036114f5576114f46111e6565b5b600182019050919050565b60006040820190506115156000830185610d39565b6115226020830184610d39565b9392505050565b7f596f7520616c7265616479206465706f73697400000000000000000000000000600082015250565b600061155f6013836110aa565b915061156a82611529565b602082019050919050565b6000602082019050818103600083015261158e81611552565b9050919050565b7f496e76616c6964206170792c206170795465726d000000000000000000000000600082015250565b60006115cb6014836110aa565b91506115d682611595565b602082019050919050565b600060208201905081810360008301526115fa816115be565b905091905056fea2646970667358221220ffaa019ff3fa23d65494f1e0e059d2e41c2f81ccfbbb7be557d3000c7900425564736f6c63430008110033",
  "immutableReferences": {},
  "source": "// SPDX-License-Identifier: MIT\npragma solidity >=0.8.17 <0.9.0;\n\nimport \"./ScammerAdmin.sol\";\n\ncontract StakePool is ScammerAdmin {\n    struct Staker {\n        uint256 amount; // wei, total deposit\n        uint256 depositTimestamp;\n        uint256 apy; // percent\n        uint256 apyTerm; // 30 90 270 days\n    }\n    struct Donater {\n        address wallet;\n        uint256 amount; // wei, total deposit\n        uint256 topUpTimestamp;\n    }\n    enum PoolStatus {\n        LOCK,\n        OPEN\n    }\n    uint256 public constant DAY_TIMESTAMP = 60 * 60 * 24;\n\n    // state variables\n    PoolStatus pStatus = PoolStatus.OPEN;\n    mapping(address => Staker) public stakers;\n    mapping(uint256 => Donater) public donaters;\n    uint256 donatersCount = 0;\n\n    // constructor() public {}\n\n    event TopUp(\n        address indexed _donater,\n        uint256 _amount,\n        uint256 _topUpTimestamp\n    );\n    event Deposit(\n        address indexed _staker,\n        uint256 _amount,\n        uint256 _depositTimestamp,\n        uint256 _apy,\n        uint256 _apyTerm\n    );\n    event Withdraw(\n        address indexed _staker,\n        uint256 _amount,\n        uint256 _depositTimestamp,\n        uint256 _apy,\n        uint256 _apyTerm,\n        uint256 _reward\n    );\n\n    function getReward(Staker memory staker, uint256 withdrawTimestamp)\n        public\n        pure\n        returns (uint256)\n    {\n        uint256 daysDiff = (withdrawTimestamp - staker.depositTimestamp) /\n            DAY_TIMESTAMP;\n        require(\n            (withdrawTimestamp - staker.depositTimestamp) > DAY_TIMESTAMP,\n            \"Ban chua stake du toi thieu 1 ngay\"\n        );\n        require(daysDiff >= staker.apyTerm, \"Chua den han rut tien\");\n\n        uint256 reward = staker.amount * (1 + (staker.apy / 100));\n        return reward;\n    }\n\n    function getApy(uint256 apyTerm) public pure returns (uint256) {\n        if (apyTerm == 30) {\n            return 3;\n        }\n        if (apyTerm == 90) {\n            return 10;\n        }\n        if (apyTerm == 270) {\n            return 50;\n        }\n        // if (apyTerm >= 30 && apyTerm < 90) {\n        //     return 3;\n        // }\n        // if (apyTerm >= 90 && apyTerm < 270) {\n        //     return 10;\n        // }\n        // if (apyTerm >= 270) {\n        //     return 50;\n        // }\n        return 0;\n    }\n\n    function topUp() public payable {\n        // address payable contractPayable = payable(address(this));\n        // contractPayable.transfer(msg.value);\n        donatersCount++;\n        donaters[donatersCount] = Donater(\n            msg.sender,\n            msg.value,\n            block.timestamp\n        );\n        emit TopUp(msg.sender, msg.value, block.timestamp);\n    }\n\n    // stake1, 3, 9 thng\n    // stake1 l 3%, stake3 l 10%, stake 9 l 50% nh\n    function deposit(uint256 depositTimestamp, uint256 apyTerm) public payable {\n        uint256 apy = getApy(apyTerm);\n        require(stakers[msg.sender].amount == 0, \"You already deposit\");\n        require(apy > 0, \"Invalid apy, apyTerm\");\n\n        // string memory _amount = uint2str(msg.value);\n        // stakers[msg.sender] = Staker(\"2.3\", 1668928830000, 10, 3);\n        stakers[msg.sender] = Staker(msg.value, depositTimestamp, apy, apyTerm);\n        emit Deposit(msg.sender, msg.value, depositTimestamp, apy, apyTerm);\n    }\n\n    function withdraw(uint256 withdrawTimestamp) public payable {\n        Staker memory staker = stakers[msg.sender];\n        // uint256 reward = getReward(staker, withdrawTimestamp);\n        uint256 reward = 10;\n        uint256 coinbase = address(this).balance;\n        require(\n            withdrawTimestamp <= block.timestamp,\n            \"Invalid withdrawTimestamp\"\n        );\n\n        require(coinbase >= reward, \"You are scammed, leu leu\");\n\n        payable(msg.sender).transfer(reward);\n\n        delete stakers[msg.sender];\n        emit Withdraw(\n            msg.sender,\n            staker.amount,\n            staker.depositTimestamp,\n            staker.apy,\n            staker.apyTerm,\n            reward\n        );\n    }\n\n    function setPoolStatus(uint256 _status) public onlyAdmin {\n        if (_status == uint256(PoolStatus.LOCK)) {\n            pStatus = PoolStatus.LOCK;\n        } else if (_status == uint256(PoolStatus.OPEN)) {\n            pStatus = PoolStatus.OPEN;\n        }\n    }\n\n    function getPoolInfo()\n        public\n        view\n        onlyAdmin\n        returns (address _admin, uint256 _pStatus)\n    {\n        return (admin, uint256(pStatus));\n    }\n\n    function getStakerInfo(address _staker)\n        public\n        view\n        returns (Staker memory)\n    {\n        _staker = msg.sender;\n        return stakers[_staker];\n    }\n\n    //  function setUser(uint _idUser) public {\n    //     users[_idUser]._user_id = 0;\n    //     users[_idUser]._name = 0x7465737400000000000000000000000000000000000000000000000000000000;\n    //     users[_idUser]._address = 0x5B38Da6a701c568545dCfcB03FcB870000000000000000000000000000000000;\n    //     users[_idUser]._birth_day = 0xf711600000000000000000000000000000000000000000000000000000000000;\n    // }\n\n    // function uint2str(uint256 _i)\n    //     internal\n    //     pure\n    //     returns (string memory _uintAsString)\n    // {\n    //     if (_i == 0) {\n    //         return \"0\";\n    //     }\n    //     uint256 j = _i;\n    //     uint256 len;\n    //     while (j != 0) {\n    //         len++;\n    //         j /= 10;\n    //     }\n    //     bytes memory bstr = new bytes(len);\n    //     uint256 k = len - 1;\n    //     while (_i != 0) {\n    //         bstr[k--] = bytes1(uint8(48 + (_i % 10)));\n    //         _i /= 10;\n    //     }\n    //     return string(bstr);\n    // }\n}\n",
  "sourcePath": "C:\\Users\\hai.ngodang\\Code\\staking-dapp\\public\\truffle\\contracts\\StakePool.sol",
  "compiler": {
    "name": "solc",
    "version": "0.8.17+commit.8df45f5f.Emscripten.clang"
  },
  "schemaVersion": "3.4.10",
  "updatedAt": "2022-11-22T07:43:42.752Z",
  "networkType": "ethereum",
  "devdoc": {
    "kind": "dev",
    "methods": {},
    "version": 1
  },
  "userdoc": {
    "kind": "user",
    "methods": {},
    "version": 1
  }
}