{
  "contractName": "StakePool",
  "abi": [
    {
      "anonymous": false,
      "inputs": [
        {
          "indexed": true,
          "internalType": "address",
          "name": "_staker",
          "type": "address"
        },
        {
          "indexed": false,
          "internalType": "string",
          "name": "_balance",
          "type": "string"
        },
        {
          "indexed": false,
          "internalType": "uint256",
          "name": "_depositTimestamp",
          "type": "uint256"
        },
        {
          "indexed": false,
          "internalType": "uint256",
          "name": "_apy",
          "type": "uint256"
        },
        {
          "indexed": false,
          "internalType": "uint256",
          "name": "_apyTerm",
          "type": "uint256"
        }
      ],
      "name": "Deposit",
      "type": "event"
    },
    {
      "inputs": [
        {
          "internalType": "address",
          "name": "",
          "type": "address"
        }
      ],
      "name": "stakers",
      "outputs": [
        {
          "internalType": "string",
          "name": "balance",
          "type": "string"
        },
        {
          "internalType": "uint256",
          "name": "depositTimestamp",
          "type": "uint256"
        },
        {
          "internalType": "uint256",
          "name": "apy",
          "type": "uint256"
        },
        {
          "internalType": "uint256",
          "name": "apyTerm",
          "type": "uint256"
        }
      ],
      "stateMutability": "view",
      "type": "function",
      "constant": true
    },
    {
      "inputs": [
        {
          "internalType": "uint256",
          "name": "_depositTimestamp",
          "type": "uint256"
        },
        {
          "internalType": "uint256",
          "name": "_apy",
          "type": "uint256"
        },
        {
          "internalType": "uint256",
          "name": "_apyTerm",
          "type": "uint256"
        }
      ],
      "name": "deposit",
      "outputs": [],
      "stateMutability": "payable",
      "type": "function",
      "payable": true
    },
    {
      "inputs": [],
      "name": "getPoolInfo",
      "outputs": [
        {
          "internalType": "address",
          "name": "_admin",
          "type": "address"
        },
        {
          "internalType": "enum StakePool.PoolStatus",
          "name": "_pStatus",
          "type": "uint8"
        }
      ],
      "stateMutability": "view",
      "type": "function",
      "constant": true
    },
    {
      "inputs": [
        {
          "internalType": "address",
          "name": "_staker",
          "type": "address"
        }
      ],
      "name": "getStakerInfo",
      "outputs": [
        {
          "components": [
            {
              "internalType": "string",
              "name": "balance",
              "type": "string"
            },
            {
              "internalType": "uint256",
              "name": "depositTimestamp",
              "type": "uint256"
            },
            {
              "internalType": "uint256",
              "name": "apy",
              "type": "uint256"
            },
            {
              "internalType": "uint256",
              "name": "apyTerm",
              "type": "uint256"
            }
          ],
          "internalType": "struct StakePool.Staker",
          "name": "",
          "type": "tuple"
        }
      ],
      "stateMutability": "view",
      "type": "function",
      "constant": true
    }
  ],
  "bytecode": "0x60806040526001600060146101000a81548160ff0219169083600181111561002a57610029610041565b5b021790555034801561003b57600080fd5b50610070565b7f4e487b7100000000000000000000000000000000000000000000000000000000600052602160045260246000fd5b610e868061007f6000396000f3fe60806040526004361061003e5760003560e01c8062aeef8a1461004357806360246c881461005f578063733bdef01461008b5780639168ae72146100c8575b600080fd5b61005d60048036038101906100589190610625565b610108565b005b34801561006b57600080fd5b50610074610253565b604051610082929190610730565b60405180910390f35b34801561009757600080fd5b506100b260048036038101906100ad9190610785565b61028f565b6040516100bf91906108b4565b60405180910390f35b3480156100d457600080fd5b506100ef60048036038101906100ea9190610785565b61039b565b6040516100ff949392919061092f565b60405180910390f35b600061011334610453565b9050604051806080016040528082815260200185815260200184815260200183815250600160003373ffffffffffffffffffffffffffffffffffffffff1673ffffffffffffffffffffffffffffffffffffffff168152602001908152602001600020600082015181600001908161018a9190610bb6565b5060208201518160010155604082015181600201556060820151816003015590505060003090508073ffffffffffffffffffffffffffffffffffffffff166108fc349081150290604051600060405180830381858888f193505050501580156101f7573d6000803e3d6000fd5b503373ffffffffffffffffffffffffffffffffffffffff167fb8ced0feae0bb0da7bfdf99e35ef56b8f122295255fde12d3a3d3257fa3450eb83878787604051610244949392919061092f565b60405180910390a25050505050565b60008060008054906101000a900473ffffffffffffffffffffffffffffffffffffffff16600060149054906101000a900460ff16915091509091565b6102976105c2565b339150600160008373ffffffffffffffffffffffffffffffffffffffff1673ffffffffffffffffffffffffffffffffffffffff1681526020019081526020016000206040518060800160405290816000820180546102f4906109d9565b80601f0160208091040260200160405190810160405280929190818152602001828054610320906109d9565b801561036d5780601f106103425761010080835404028352916020019161036d565b820191906000526020600020905b81548152906001019060200180831161035057829003601f168201915b5050505050815260200160018201548152602001600282015481526020016003820154815250509050919050565b60016020528060005260406000206000915090508060000180546103be906109d9565b80601f01602080910402602001604051908101604052809291908181526020018280546103ea906109d9565b80156104375780601f1061040c57610100808354040283529160200191610437565b820191906000526020600020905b81548152906001019060200180831161041a57829003601f168201915b5050505050908060010154908060020154908060030154905084565b60606000820361049a576040518060400160405280600181526020017f300000000000000000000000000000000000000000000000000000000000000081525090506105bd565b600082905060005b600082146104cc5780806104b590610cb7565b915050600a826104c59190610d2e565b91506104a2565b60008167ffffffffffffffff8111156104e8576104e761097b565b5b6040519080825280601f01601f19166020018201604052801561051a5781602001600182028036833780820191505090505b509050600060018361052c9190610d5f565b90505b600086146105b557600a866105449190610d93565b60306105509190610dc4565b60f81b82828061055f90610df8565b93508151811061057257610571610e21565b5b60200101907effffffffffffffffffffffffffffffffffffffffffffffffffffffffffffff1916908160001a905350600a866105ae9190610d2e565b955061052f565b819450505050505b919050565b6040518060800160405280606081526020016000815260200160008152602001600081525090565b600080fd5b6000819050919050565b610602816105ef565b811461060d57600080fd5b50565b60008135905061061f816105f9565b92915050565b60008060006060848603121561063e5761063d6105ea565b5b600061064c86828701610610565b935050602061065d86828701610610565b925050604061066e86828701610610565b9150509250925092565b600073ffffffffffffffffffffffffffffffffffffffff82169050919050565b60006106a382610678565b9050919050565b6106b381610698565b82525050565b7f4e487b7100000000000000000000000000000000000000000000000000000000600052602160045260246000fd5b600281106106f9576106f86106b9565b5b50565b600081905061070a826106e8565b919050565b600061071a826106fc565b9050919050565b61072a8161070f565b82525050565b600060408201905061074560008301856106aa565b6107526020830184610721565b9392505050565b61076281610698565b811461076d57600080fd5b50565b60008135905061077f81610759565b92915050565b60006020828403121561079b5761079a6105ea565b5b60006107a984828501610770565b91505092915050565b600081519050919050565b600082825260208201905092915050565b60005b838110156107ec5780820151818401526020810190506107d1565b60008484015250505050565b6000601f19601f8301169050919050565b6000610814826107b2565b61081e81856107bd565b935061082e8185602086016107ce565b610837816107f8565b840191505092915050565b61084b816105ef565b82525050565b6000608083016000830151848203600086015261086e8282610809565b91505060208301516108836020860182610842565b5060408301516108966040860182610842565b5060608301516108a96060860182610842565b508091505092915050565b600060208201905081810360008301526108ce8184610851565b905092915050565b600082825260208201905092915050565b60006108f2826107b2565b6108fc81856108d6565b935061090c8185602086016107ce565b610915816107f8565b840191505092915050565b610929816105ef565b82525050565b6000608082019050818103600083015261094981876108e7565b90506109586020830186610920565b6109656040830185610920565b6109726060830184610920565b95945050505050565b7f4e487b7100000000000000000000000000000000000000000000000000000000600052604160045260246000fd5b7f4e487b7100000000000000000000000000000000000000000000000000000000600052602260045260246000fd5b600060028204905060018216806109f157607f821691505b602082108103610a0457610a036109aa565b5b50919050565b60008190508160005260206000209050919050565b60006020601f8301049050919050565b600082821b905092915050565b600060088302610a6c7fffffffffffffffffffffffffffffffffffffffffffffffffffffffffffffffff82610a2f565b610a768683610a2f565b95508019841693508086168417925050509392505050565b6000819050919050565b6000610ab3610aae610aa9846105ef565b610a8e565b6105ef565b9050919050565b6000819050919050565b610acd83610a98565b610ae1610ad982610aba565b848454610a3c565b825550505050565b600090565b610af6610ae9565b610b01818484610ac4565b505050565b5b81811015610b2557610b1a600082610aee565b600181019050610b07565b5050565b601f821115610b6a57610b3b81610a0a565b610b4484610a1f565b81016020851015610b53578190505b610b67610b5f85610a1f565b830182610b06565b50505b505050565b600082821c905092915050565b6000610b8d60001984600802610b6f565b1980831691505092915050565b6000610ba68383610b7c565b9150826002028217905092915050565b610bbf826107b2565b67ffffffffffffffff811115610bd857610bd761097b565b5b610be282546109d9565b610bed828285610b29565b600060209050601f831160018114610c205760008415610c0e578287015190505b610c188582610b9a565b865550610c80565b601f198416610c2e86610a0a565b60005b82811015610c5657848901518255600182019150602085019450602081019050610c31565b86831015610c735784890151610c6f601f891682610b7c565b8355505b6001600288020188555050505b505050505050565b7f4e487b7100000000000000000000000000000000000000000000000000000000600052601160045260246000fd5b6000610cc2826105ef565b91507fffffffffffffffffffffffffffffffffffffffffffffffffffffffffffffffff8203610cf457610cf3610c88565b5b600182019050919050565b7f4e487b7100000000000000000000000000000000000000000000000000000000600052601260045260246000fd5b6000610d39826105ef565b9150610d44836105ef565b925082610d5457610d53610cff565b5b828204905092915050565b6000610d6a826105ef565b9150610d75836105ef565b9250828203905081811115610d8d57610d8c610c88565b5b92915050565b6000610d9e826105ef565b9150610da9836105ef565b925082610db957610db8610cff565b5b828206905092915050565b6000610dcf826105ef565b9150610dda836105ef565b9250828201905080821115610df257610df1610c88565b5b92915050565b6000610e03826105ef565b915060008203610e1657610e15610c88565b5b600182039050919050565b7f4e487b7100000000000000000000000000000000000000000000000000000000600052603260045260246000fdfea2646970667358221220525733b85ff468aa930e74badb31045610a83159f3a75b4eba52a334528177e064736f6c63430008110033",
  "immutableReferences": {},
  "source": "// SPDX-License-Identifier: MIT\npragma solidity >=0.8.17 <0.9.0;\n\ncontract StakePool {\n    struct Staker {\n        string balance; // float, total deposit\n        uint256 depositTimestamp;\n        uint256 apy; // percent\n        uint256 apyTerm; // months\n    }\n    enum PoolStatus {\n        LOCK,\n        OPEN\n    }\n    // state variables\n    address admin;\n    PoolStatus pStatus = PoolStatus.OPEN;\n    mapping(address => Staker) public stakers;\n\n    // constructor() public {}\n\n    event Deposit(\n        address indexed _staker,\n        string _balance,\n        uint256 _depositTimestamp,\n        uint256 _apy,\n        uint256 _apyTerm\n    );\n\n    function uint2str(uint256 _i)\n        internal\n        pure\n        returns (string memory _uintAsString)\n    {\n        if (_i == 0) {\n            return \"0\";\n        }\n        uint256 j = _i;\n        uint256 len;\n        while (j != 0) {\n            len++;\n            j /= 10;\n        }\n        bytes memory bstr = new bytes(len);\n        uint256 k = len - 1;\n        while (_i != 0) {\n            bstr[k--] = bytes1(uint8(48 + (_i % 10)));\n            _i /= 10;\n        }\n        return string(bstr);\n    }\n\n    // stake1, 3, 9 thng\n    // stake1 l 3%, stake3 l 10%, stake 9 l 50% nh\n    function deposit(\n        uint256 _depositTimestamp,\n        uint256 _apy,\n        uint256 _apyTerm\n    ) public payable {\n        string memory _balance = uint2str(msg.value);\n        // stakers[msg.sender] = Staker(\"2.3\", 1668928830000, 10, 3);\n        stakers[msg.sender] = Staker(\n            _balance,\n            _depositTimestamp,\n            _apy,\n            _apyTerm\n        );\n        address payable contractPayable = payable(address(this));\n        // the buyer can pay the seller\n        contractPayable.transfer(msg.value);\n        emit Deposit(msg.sender, _balance, _depositTimestamp, _apy, _apyTerm);\n    }\n\n    //  function setUser(uint _idUser) public {\n    //     users[_idUser]._user_id = 0;\n    //     users[_idUser]._name = 0x7465737400000000000000000000000000000000000000000000000000000000;\n    //     users[_idUser]._address = 0x5B38Da6a701c568545dCfcB03FcB870000000000000000000000000000000000;\n    //     users[_idUser]._birth_day = 0xf711600000000000000000000000000000000000000000000000000000000000;\n    // }\n    function getPoolInfo()\n        public\n        view\n        returns (address _admin, PoolStatus _pStatus)\n    {\n        return (admin, pStatus);\n    }\n\n    function getStakerInfo(address _staker)\n        public\n        view\n        returns (Staker memory)\n    {\n        _staker = msg.sender;\n        return stakers[_staker];\n    }\n}\n",
  "sourcePath": "G:\\Github Repo\\staking-dapp\\public\\truffle\\contracts\\StakePool.sol",
  "compiler": {
    "name": "solc",
    "version": "0.8.17+commit.8df45f5f.Emscripten.clang"
  },
  "schemaVersion": "3.4.10",
  "updatedAt": "2022-11-20T14:32:33.333Z",
  "networkType": "ethereum",
  "devdoc": {
    "kind": "dev",
    "methods": {},
    "version": 1
  },
  "userdoc": {
    "kind": "user",
    "methods": {},
    "version": 1
  }
}