{
  "contractName": "StakePool",
  "abi": [
    {
      "anonymous": false,
      "inputs": [
        {
          "indexed": true,
          "internalType": "address",
          "name": "_staker",
          "type": "address"
        },
        {
          "indexed": false,
          "internalType": "uint256",
          "name": "_balance",
          "type": "uint256"
        },
        {
          "indexed": false,
          "internalType": "uint256",
          "name": "_depositTimestamp",
          "type": "uint256"
        },
        {
          "indexed": false,
          "internalType": "uint256",
          "name": "_apy",
          "type": "uint256"
        },
        {
          "indexed": false,
          "internalType": "uint256",
          "name": "_apyTerm",
          "type": "uint256"
        }
      ],
      "name": "Deposit",
      "type": "event"
    },
    {
      "inputs": [
        {
          "internalType": "address",
          "name": "",
          "type": "address"
        }
      ],
      "name": "stakers",
      "outputs": [
        {
          "internalType": "uint256",
          "name": "balance",
          "type": "uint256"
        },
        {
          "internalType": "uint256",
          "name": "depositTimestamp",
          "type": "uint256"
        },
        {
          "internalType": "uint256",
          "name": "apy",
          "type": "uint256"
        },
        {
          "internalType": "uint256",
          "name": "apyTerm",
          "type": "uint256"
        }
      ],
      "stateMutability": "view",
      "type": "function",
      "constant": true
    },
    {
      "inputs": [
        {
          "internalType": "uint256",
          "name": "_depositTimestamp",
          "type": "uint256"
        },
        {
          "internalType": "uint256",
          "name": "_apy",
          "type": "uint256"
        },
        {
          "internalType": "uint256",
          "name": "_apyTerm",
          "type": "uint256"
        }
      ],
      "name": "deposit",
      "outputs": [],
      "stateMutability": "payable",
      "type": "function",
      "payable": true
    },
    {
      "inputs": [
        {
          "internalType": "uint256",
          "name": "_status",
          "type": "uint256"
        }
      ],
      "name": "setPoolStatus",
      "outputs": [],
      "stateMutability": "nonpayable",
      "type": "function"
    },
    {
      "inputs": [],
      "name": "getPoolInfo",
      "outputs": [
        {
          "internalType": "address",
          "name": "_admin",
          "type": "address"
        },
        {
          "internalType": "uint256",
          "name": "_pStatus",
          "type": "uint256"
        }
      ],
      "stateMutability": "view",
      "type": "function",
      "constant": true
    },
    {
      "inputs": [
        {
          "internalType": "address",
          "name": "_staker",
          "type": "address"
        }
      ],
      "name": "getStakerInfo",
      "outputs": [
        {
          "components": [
            {
              "internalType": "uint256",
              "name": "balance",
              "type": "uint256"
            },
            {
              "internalType": "uint256",
              "name": "depositTimestamp",
              "type": "uint256"
            },
            {
              "internalType": "uint256",
              "name": "apy",
              "type": "uint256"
            },
            {
              "internalType": "uint256",
              "name": "apyTerm",
              "type": "uint256"
            }
          ],
          "internalType": "struct StakePool.Staker",
          "name": "",
          "type": "tuple"
        }
      ],
      "stateMutability": "view",
      "type": "function",
      "constant": true
    }
  ],
  "bytecode": "0x60806040526001600060146101000a81548160ff0219169083600181111561002a57610029610041565b5b021790555034801561003b57600080fd5b50610070565b7f4e487b7100000000000000000000000000000000000000000000000000000000600052602160045260246000fd5b6106928061007f6000396000f3fe6080604052600436106100495760003560e01c8062aeef8a1461004e57806360246c881461006a578063733bdef0146100965780639168ae72146100d3578063bc74ab6314610113575b600080fd5b61006860048036038101906100639190610417565b61013c565b005b34801561007657600080fd5b5061007f610220565b60405161008d9291906104ba565b60405180910390f35b3480156100a257600080fd5b506100bd60048036038101906100b8919061050f565b61026e565b6040516100ca91906105a0565b60405180910390f35b3480156100df57600080fd5b506100fa60048036038101906100f5919061050f565b6102f2565b60405161010a94939291906105bb565b60405180910390f35b34801561011f57600080fd5b5061013a60048036038101906101359190610600565b610322565b005b604051806080016040528034815260200184815260200183815260200182815250600160003373ffffffffffffffffffffffffffffffffffffffff1673ffffffffffffffffffffffffffffffffffffffff168152602001908152602001600020600082015181600001556020820151816001015560408201518160020155606082015181600301559050503373ffffffffffffffffffffffffffffffffffffffff167f7162984403f6c73c8639375d45a9187dfd04602231bd8e587c415718b5f7e5f93485858560405161021394939291906105bb565b60405180910390a2505050565b60008060008054906101000a900473ffffffffffffffffffffffffffffffffffffffff16600060149054906101000a900460ff1660018111156102665761026561062d565b5b915091509091565b6102766103b4565b339150600160008373ffffffffffffffffffffffffffffffffffffffff1673ffffffffffffffffffffffffffffffffffffffff1681526020019081526020016000206040518060800160405290816000820154815260200160018201548152602001600282015481526020016003820154815250509050919050565b60016020528060005260406000206000915090508060000154908060010154908060020154908060030154905084565b600060018111156103365761033561062d565b5b810361036b5760008060146101000a81548160ff021916908360018111156103615761036061062d565b5b02179055506103b1565b60018081111561037e5761037d61062d565b5b81036103b0576001600060146101000a81548160ff021916908360018111156103aa576103a961062d565b5b02179055505b5b50565b6040518060800160405280600081526020016000815260200160008152602001600081525090565b600080fd5b6000819050919050565b6103f4816103e1565b81146103ff57600080fd5b50565b600081359050610411816103eb565b92915050565b6000806000606084860312156104305761042f6103dc565b5b600061043e86828701610402565b935050602061044f86828701610402565b925050604061046086828701610402565b9150509250925092565b600073ffffffffffffffffffffffffffffffffffffffff82169050919050565b60006104958261046a565b9050919050565b6104a58161048a565b82525050565b6104b4816103e1565b82525050565b60006040820190506104cf600083018561049c565b6104dc60208301846104ab565b9392505050565b6104ec8161048a565b81146104f757600080fd5b50565b600081359050610509816104e3565b92915050565b600060208284031215610525576105246103dc565b5b6000610533848285016104fa565b91505092915050565b610545816103e1565b82525050565b608082016000820151610561600085018261053c565b506020820151610574602085018261053c565b506040820151610587604085018261053c565b50606082015161059a606085018261053c565b50505050565b60006080820190506105b5600083018461054b565b92915050565b60006080820190506105d060008301876104ab565b6105dd60208301866104ab565b6105ea60408301856104ab565b6105f760608301846104ab565b95945050505050565b600060208284031215610616576106156103dc565b5b600061062484828501610402565b91505092915050565b7f4e487b7100000000000000000000000000000000000000000000000000000000600052602160045260246000fdfea264697066735822122028eea3b224ee14ccad8da2ee8b5d6a9cc9f581a308f10e5543254242fd45641464736f6c63430008110033",
  "immutableReferences": {},
  "source": "// SPDX-License-Identifier: MIT\npragma solidity >=0.8.17 <0.9.0;\n\ncontract StakePool {\n    struct Staker {\n        uint balance; // float, total deposit\n        uint256 depositTimestamp;\n        uint256 apy; // percent\n        uint256 apyTerm; // months\n    }\n    enum PoolStatus {\n        LOCK,\n        OPEN\n    }\n    // state variables\n    address admin;\n    PoolStatus pStatus = PoolStatus.OPEN;\n    mapping(address => Staker) public stakers;\n\n    // constructor() public {}\n\n    event Deposit(\n        address indexed _staker,\n        uint _balance,\n        uint256 _depositTimestamp,\n        uint256 _apy,\n        uint256 _apyTerm\n    );\n\n    // function uint2str(uint256 _i)\n    //     internal\n    //     pure\n    //     returns (string memory _uintAsString)\n    // {\n    //     if (_i == 0) {\n    //         return \"0\";\n    //     }\n    //     uint256 j = _i;\n    //     uint256 len;\n    //     while (j != 0) {\n    //         len++;\n    //         j /= 10;\n    //     }\n    //     bytes memory bstr = new bytes(len);\n    //     uint256 k = len - 1;\n    //     while (_i != 0) {\n    //         bstr[k--] = bytes1(uint8(48 + (_i % 10)));\n    //         _i /= 10;\n    //     }\n    //     return string(bstr);\n    // }\n\n    // stake1, 3, 9 thng\n    // stake1 l 3%, stake3 l 10%, stake 9 l 50% nh\n    function deposit(\n        uint256 _depositTimestamp,\n        uint256 _apy,\n        uint256 _apyTerm\n    ) public payable {\n        // string memory _balance = uint2str(msg.value);\n        // stakers[msg.sender] = Staker(\"2.3\", 1668928830000, 10, 3);\n        stakers[msg.sender] = Staker(\n            msg.value,\n            _depositTimestamp,\n            _apy,\n            _apyTerm\n        );\n        // address payable contractPayable = payable(address(this));\n        // contractPayable.transfer(msg.value);\n\n        emit Deposit(msg.sender, msg.value, _depositTimestamp, _apy, _apyTerm);\n    }\n\n    //  function setUser(uint _idUser) public {\n    //     users[_idUser]._user_id = 0;\n    //     users[_idUser]._name = 0x7465737400000000000000000000000000000000000000000000000000000000;\n    //     users[_idUser]._address = 0x5B38Da6a701c568545dCfcB03FcB870000000000000000000000000000000000;\n    //     users[_idUser]._birth_day = 0xf711600000000000000000000000000000000000000000000000000000000000;\n    // }\n\n    function setPoolStatus(uint256 _status) public {\n        if (_status == uint256(PoolStatus.LOCK)) {\n            pStatus = PoolStatus.LOCK;\n        } else if (_status == uint256(PoolStatus.OPEN)) {\n            pStatus = PoolStatus.OPEN;\n        }\n    }\n\n    function getPoolInfo()\n        public\n        view\n        returns (address _admin, uint256 _pStatus)\n    {\n        return (admin, uint256(pStatus));\n    }\n\n    function getStakerInfo(address _staker)\n        public\n        view\n        returns (Staker memory)\n    {\n        _staker = msg.sender;\n        return stakers[_staker];\n    }\n}\n",
  "sourcePath": "C:\\Users\\hai.ngodang\\Code\\staking-dapp\\public\\truffle\\contracts\\StakePool.sol",
  "compiler": {
    "name": "solc",
    "version": "0.8.17+commit.8df45f5f.Emscripten.clang"
  },
  "schemaVersion": "3.4.10",
  "updatedAt": "2022-11-21T10:06:42.124Z",
  "networkType": "ethereum",
  "devdoc": {
    "kind": "dev",
    "methods": {},
    "version": 1
  },
  "userdoc": {
    "kind": "user",
    "methods": {},
    "version": 1
  }
}