{
  "contractName": "StakePool",
  "abi": [
    {
      "inputs": [],
      "stateMutability": "nonpayable",
      "type": "constructor"
    },
    {
      "anonymous": false,
      "inputs": [
        {
          "indexed": true,
          "internalType": "address",
          "name": "seller",
          "type": "address"
        },
        {
          "indexed": false,
          "internalType": "string",
          "name": "name",
          "type": "string"
        },
        {
          "indexed": false,
          "internalType": "uint256",
          "name": "price",
          "type": "uint256"
        }
      ],
      "name": "LogSellArticle",
      "type": "event"
    },
    {
      "inputs": [
        {
          "internalType": "string",
          "name": "_name",
          "type": "string"
        },
        {
          "internalType": "string",
          "name": "_description",
          "type": "string"
        },
        {
          "internalType": "uint256",
          "name": "_price",
          "type": "uint256"
        }
      ],
      "name": "sellArticle",
      "outputs": [],
      "stateMutability": "nonpayable",
      "type": "function"
    },
    {
      "inputs": [],
      "name": "getArticle",
      "outputs": [
        {
          "internalType": "address",
          "name": "_seller",
          "type": "address"
        },
        {
          "internalType": "address",
          "name": "_buyer",
          "type": "address"
        },
        {
          "internalType": "string",
          "name": "_name",
          "type": "string"
        },
        {
          "internalType": "string",
          "name": "_description",
          "type": "string"
        },
        {
          "internalType": "uint256",
          "name": "_price",
          "type": "uint256"
        }
      ],
      "stateMutability": "view",
      "type": "function",
      "constant": true
    }
  ],
  "bytecode": "0x608060405234801561001057600080fd5b50610a2a806100206000396000f3fe608060405234801561001057600080fd5b50600436106100365760003560e01c8063c37218a61461003b578063d26095151461005d575b600080fd5b610043610079565b604051610054959493929190610401565b60405180910390f35b610077600480360381019061007291906105d7565b6101f6565b005b60008060608060008060009054906101000a900473ffffffffffffffffffffffffffffffffffffffff16600160009054906101000a900473ffffffffffffffffffffffffffffffffffffffff16600260036004548280546100d990610691565b80601f016020809104026020016040519081016040528092919081815260200182805461010590610691565b80156101525780601f1061012757610100808354040283529160200191610152565b820191906000526020600020905b81548152906001019060200180831161013557829003601f168201915b5050505050925081805461016590610691565b80601f016020809104026020016040519081016040528092919081815260200182805461019190610691565b80156101de5780601f106101b3576101008083540402835291602001916101de565b820191906000526020600020905b8154815290600101906020018083116101c157829003601f168201915b50505050509150945094509450945094509091929394565b336000806101000a81548173ffffffffffffffffffffffffffffffffffffffff021916908373ffffffffffffffffffffffffffffffffffffffff1602179055506000600160006101000a81548173ffffffffffffffffffffffffffffffffffffffff021916908373ffffffffffffffffffffffffffffffffffffffff1602179055508260029081610287919061086e565b508160039081610297919061086e565b508060048190555060008054906101000a900473ffffffffffffffffffffffffffffffffffffffff1673ffffffffffffffffffffffffffffffffffffffff167f02bce32b00112077eb590edcbfae020c674b22a31691eadef8ec7c17541e83cc600260045460405161030a9291906109c4565b60405180910390a2505050565b600073ffffffffffffffffffffffffffffffffffffffff82169050919050565b600061034282610317565b9050919050565b61035281610337565b82525050565b600081519050919050565b600082825260208201905092915050565b60005b83811015610392578082015181840152602081019050610377565b60008484015250505050565b6000601f19601f8301169050919050565b60006103ba82610358565b6103c48185610363565b93506103d4818560208601610374565b6103dd8161039e565b840191505092915050565b6000819050919050565b6103fb816103e8565b82525050565b600060a0820190506104166000830188610349565b6104236020830187610349565b818103604083015261043581866103af565b9050818103606083015261044981856103af565b905061045860808301846103f2565b9695505050505050565b6000604051905090565b600080fd5b600080fd5b600080fd5b600080fd5b7f4e487b7100000000000000000000000000000000000000000000000000000000600052604160045260246000fd5b6104b88261039e565b810181811067ffffffffffffffff821117156104d7576104d6610480565b5b80604052505050565b60006104ea610462565b90506104f682826104af565b919050565b600067ffffffffffffffff82111561051657610515610480565b5b61051f8261039e565b9050602081019050919050565b82818337600083830152505050565b600061054e610549846104fb565b6104e0565b90508281526020810184848401111561056a5761056961047b565b5b61057584828561052c565b509392505050565b600082601f83011261059257610591610476565b5b81356105a284826020860161053b565b91505092915050565b6105b4816103e8565b81146105bf57600080fd5b50565b6000813590506105d1816105ab565b92915050565b6000806000606084860312156105f0576105ef61046c565b5b600084013567ffffffffffffffff81111561060e5761060d610471565b5b61061a8682870161057d565b935050602084013567ffffffffffffffff81111561063b5761063a610471565b5b6106478682870161057d565b9250506040610658868287016105c2565b9150509250925092565b7f4e487b7100000000000000000000000000000000000000000000000000000000600052602260045260246000fd5b600060028204905060018216806106a957607f821691505b6020821081036106bc576106bb610662565b5b50919050565b60008190508160005260206000209050919050565b60006020601f8301049050919050565b600082821b905092915050565b6000600883026107247fffffffffffffffffffffffffffffffffffffffffffffffffffffffffffffffff826106e7565b61072e86836106e7565b95508019841693508086168417925050509392505050565b6000819050919050565b600061076b610766610761846103e8565b610746565b6103e8565b9050919050565b6000819050919050565b61078583610750565b61079961079182610772565b8484546106f4565b825550505050565b600090565b6107ae6107a1565b6107b981848461077c565b505050565b5b818110156107dd576107d26000826107a6565b6001810190506107bf565b5050565b601f821115610822576107f3816106c2565b6107fc846106d7565b8101602085101561080b578190505b61081f610817856106d7565b8301826107be565b50505b505050565b600082821c905092915050565b600061084560001984600802610827565b1980831691505092915050565b600061085e8383610834565b9150826002028217905092915050565b61087782610358565b67ffffffffffffffff8111156108905761088f610480565b5b61089a8254610691565b6108a58282856107e1565b600060209050601f8311600181146108d857600084156108c6578287015190505b6108d08582610852565b865550610938565b601f1984166108e6866106c2565b60005b8281101561090e578489015182556001820191506020850194506020810190506108e9565b8683101561092b5784890151610927601f891682610834565b8355505b6001600288020188555050505b505050505050565b6000815461094d81610691565b6109578186610363565b945060018216600081146109725760018114610988576109bb565b60ff1983168652811515602002860193506109bb565b610991856106c2565b60005b838110156109b357815481890152600182019150602081019050610994565b808801955050505b50505092915050565b600060408201905081810360008301526109de8185610940565b90506109ed60208301846103f2565b939250505056fea26469706673582212202d9807b1653e3ecbef46a0150126be9ea1454ad425c9b531f5ebbbfe14ca15b664736f6c63430008110033",
  "immutableReferences": {},
  "source": "// SPDX-License-Identifier: MIT\npragma solidity >=0.8.17 <0.9.0;\n\ncontract StakePool {\n  // state variables\n  address seller;\n  address buyer;\n  string name;\n  string description;\n  uint256 price;\n\n  constructor() public {\n  }\n\n  event LogSellArticle(\n    address indexed seller,\n    string name,\n    uint256 price\n  );\n\n  // sell an article\n  function sellArticle(string memory _name, string memory _description, uint256 _price) public {\n    // require(\n    //   msg.sender == seller,\n    //   \"Only seller can call this.\"\n    // );\n    // string memory sellerStr =  string(abi.encodePacked(msg.sender));\n    // _description = sellerStr;\n\n    seller = msg.sender;\n    buyer = address(0);\n    name = _name;\n    description = _description;\n    price = _price;\n\n    emit LogSellArticle(seller, name, price);\n  }\n\n  // get an article\n  function getArticle() public view returns (\n    address _seller,\n    address _buyer,\n    string memory _name,\n    string memory _description,\n    uint256 _price\n  ) {\n      return(seller, buyer, name, description, price);\n  }\n}\n",
  "sourcePath": "G:\\Github Repo\\staking-dapp\\public\\truffle\\contracts\\StakePool.sol",
  "compiler": {
    "name": "solc",
    "version": "0.8.17+commit.8df45f5f.Emscripten.clang"
  },
  "schemaVersion": "3.4.10",
  "updatedAt": "2022-11-20T05:54:52.278Z",
  "networkType": "ethereum",
  "devdoc": {
    "kind": "dev",
    "methods": {},
    "version": 1
  },
  "userdoc": {
    "kind": "user",
    "methods": {},
    "version": 1
  }
}