{
  "contractName": "StakePool",
  "abi": [
    {
      "inputs": [
        {
          "internalType": "address",
          "name": "tokenAddress",
          "type": "address"
        }
      ],
      "stateMutability": "nonpayable",
      "type": "constructor"
    },
    {
      "anonymous": false,
      "inputs": [
        {
          "indexed": true,
          "internalType": "address",
          "name": "_staker",
          "type": "address"
        },
        {
          "indexed": false,
          "internalType": "uint256",
          "name": "_amount",
          "type": "uint256"
        },
        {
          "indexed": false,
          "internalType": "uint256",
          "name": "_depositTimestamp",
          "type": "uint256"
        },
        {
          "indexed": false,
          "internalType": "uint256",
          "name": "_apy",
          "type": "uint256"
        },
        {
          "indexed": false,
          "internalType": "uint256",
          "name": "_apyTerm",
          "type": "uint256"
        }
      ],
      "name": "Deposit",
      "type": "event"
    },
    {
      "anonymous": false,
      "inputs": [
        {
          "indexed": true,
          "internalType": "address",
          "name": "_donater",
          "type": "address"
        },
        {
          "indexed": false,
          "internalType": "uint256",
          "name": "_amount",
          "type": "uint256"
        },
        {
          "indexed": false,
          "internalType": "uint256",
          "name": "_topUpTimestamp",
          "type": "uint256"
        }
      ],
      "name": "TopUp",
      "type": "event"
    },
    {
      "anonymous": false,
      "inputs": [
        {
          "indexed": true,
          "internalType": "address",
          "name": "_staker",
          "type": "address"
        },
        {
          "indexed": false,
          "internalType": "uint256",
          "name": "_amount",
          "type": "uint256"
        },
        {
          "indexed": false,
          "internalType": "uint256",
          "name": "_depositTimestamp",
          "type": "uint256"
        },
        {
          "indexed": false,
          "internalType": "uint256",
          "name": "_apy",
          "type": "uint256"
        },
        {
          "indexed": false,
          "internalType": "uint256",
          "name": "_apyTerm",
          "type": "uint256"
        },
        {
          "indexed": false,
          "internalType": "uint256",
          "name": "_reward",
          "type": "uint256"
        }
      ],
      "name": "Withdraw",
      "type": "event"
    },
    {
      "inputs": [],
      "name": "DAY_TIMESTAMP",
      "outputs": [
        {
          "internalType": "uint256",
          "name": "",
          "type": "uint256"
        }
      ],
      "stateMutability": "view",
      "type": "function",
      "constant": true
    },
    {
      "inputs": [
        {
          "internalType": "uint256",
          "name": "",
          "type": "uint256"
        }
      ],
      "name": "donaters",
      "outputs": [
        {
          "internalType": "address",
          "name": "wallet",
          "type": "address"
        },
        {
          "internalType": "uint256",
          "name": "amount",
          "type": "uint256"
        },
        {
          "internalType": "uint256",
          "name": "topUpTimestamp",
          "type": "uint256"
        }
      ],
      "stateMutability": "view",
      "type": "function",
      "constant": true
    },
    {
      "inputs": [],
      "name": "letScamAndRun",
      "outputs": [],
      "stateMutability": "nonpayable",
      "type": "function"
    },
    {
      "inputs": [
        {
          "internalType": "address",
          "name": "",
          "type": "address"
        }
      ],
      "name": "stakers",
      "outputs": [
        {
          "internalType": "uint256",
          "name": "amount",
          "type": "uint256"
        },
        {
          "internalType": "uint256",
          "name": "depositTimestamp",
          "type": "uint256"
        },
        {
          "internalType": "uint256",
          "name": "apy",
          "type": "uint256"
        },
        {
          "internalType": "uint256",
          "name": "apyTerm",
          "type": "uint256"
        }
      ],
      "stateMutability": "view",
      "type": "function",
      "constant": true
    },
    {
      "inputs": [
        {
          "components": [
            {
              "internalType": "uint256",
              "name": "amount",
              "type": "uint256"
            },
            {
              "internalType": "uint256",
              "name": "depositTimestamp",
              "type": "uint256"
            },
            {
              "internalType": "uint256",
              "name": "apy",
              "type": "uint256"
            },
            {
              "internalType": "uint256",
              "name": "apyTerm",
              "type": "uint256"
            }
          ],
          "internalType": "struct StakePool.Staker",
          "name": "staker",
          "type": "tuple"
        },
        {
          "internalType": "uint256",
          "name": "withdrawTimestamp",
          "type": "uint256"
        }
      ],
      "name": "getReward",
      "outputs": [
        {
          "internalType": "uint256",
          "name": "",
          "type": "uint256"
        }
      ],
      "stateMutability": "pure",
      "type": "function",
      "constant": true
    },
    {
      "inputs": [
        {
          "internalType": "uint256",
          "name": "apyTerm",
          "type": "uint256"
        }
      ],
      "name": "getApy",
      "outputs": [
        {
          "internalType": "uint256",
          "name": "",
          "type": "uint256"
        }
      ],
      "stateMutability": "pure",
      "type": "function",
      "constant": true
    },
    {
      "inputs": [],
      "name": "topUp",
      "outputs": [],
      "stateMutability": "payable",
      "type": "function",
      "payable": true
    },
    {
      "inputs": [
        {
          "internalType": "uint256",
          "name": "depositTimestamp",
          "type": "uint256"
        },
        {
          "internalType": "uint256",
          "name": "apyTerm",
          "type": "uint256"
        }
      ],
      "name": "deposit",
      "outputs": [],
      "stateMutability": "payable",
      "type": "function",
      "payable": true
    },
    {
      "inputs": [
        {
          "internalType": "uint256",
          "name": "withdrawTimestamp",
          "type": "uint256"
        }
      ],
      "name": "withdraw",
      "outputs": [],
      "stateMutability": "nonpayable",
      "type": "function"
    },
    {
      "inputs": [
        {
          "internalType": "uint256",
          "name": "value",
          "type": "uint256"
        }
      ],
      "name": "adminWithdraw",
      "outputs": [],
      "stateMutability": "nonpayable",
      "type": "function"
    },
    {
      "inputs": [
        {
          "internalType": "uint256",
          "name": "_status",
          "type": "uint256"
        }
      ],
      "name": "setPoolStatus2",
      "outputs": [],
      "stateMutability": "nonpayable",
      "type": "function"
    },
    {
      "inputs": [
        {
          "internalType": "enum StakePool.PoolStatus",
          "name": "_status",
          "type": "uint8"
        }
      ],
      "name": "setPoolStatus",
      "outputs": [],
      "stateMutability": "nonpayable",
      "type": "function"
    },
    {
      "inputs": [],
      "name": "getPoolInfo",
      "outputs": [
        {
          "internalType": "address",
          "name": "_admin",
          "type": "address"
        },
        {
          "internalType": "uint256",
          "name": "_pStatus",
          "type": "uint256"
        }
      ],
      "stateMutability": "view",
      "type": "function",
      "constant": true
    },
    {
      "inputs": [
        {
          "internalType": "address",
          "name": "_staker",
          "type": "address"
        }
      ],
      "name": "getStakerInfo",
      "outputs": [
        {
          "components": [
            {
              "internalType": "uint256",
              "name": "amount",
              "type": "uint256"
            },
            {
              "internalType": "uint256",
              "name": "depositTimestamp",
              "type": "uint256"
            },
            {
              "internalType": "uint256",
              "name": "apy",
              "type": "uint256"
            },
            {
              "internalType": "uint256",
              "name": "apyTerm",
              "type": "uint256"
            }
          ],
          "internalType": "struct StakePool.Staker",
          "name": "",
          "type": "tuple"
        }
      ],
      "stateMutability": "view",
      "type": "function",
      "constant": true
    }
  ],
  "bytecode": "0x60806040526001600060146101000a81548160ff021916908360018111156200002d576200002c620000f2565b5b021790555060006004553480156200004457600080fd5b5060405162001ac138038062001ac183398181016040528101906200006a91906200018b565b336000806101000a81548173ffffffffffffffffffffffffffffffffffffffff021916908373ffffffffffffffffffffffffffffffffffffffff16021790555080600160006101000a81548173ffffffffffffffffffffffffffffffffffffffff021916908373ffffffffffffffffffffffffffffffffffffffff16021790555050620001bd565b7f4e487b7100000000000000000000000000000000000000000000000000000000600052602160045260246000fd5b600080fd5b600073ffffffffffffffffffffffffffffffffffffffff82169050919050565b6000620001538262000126565b9050919050565b620001658162000146565b81146200017157600080fd5b50565b60008151905062000185816200015a565b92915050565b600060208284031215620001a457620001a362000121565b5b6000620001b48482850162000174565b91505092915050565b6118f480620001cd6000396000f3fe6080604052600436106100dd5760003560e01c80637c5b4a371161007f578063d0a87cd111610059578063d0a87cd1146102c2578063dc29f1de146102eb578063e2bbb158146102f5578063e9a8494214610311576100dd565b80637c5b4a371461022e5780639168ae7214610257578063b37e7f4f14610297576100dd565b806360246c88116100bb57806360246c88146101855780636d7c49a2146101b1578063733bdef0146101da5780637afdf1b714610217576100dd565b80632e1a7d4d146100e25780633e79c52b1461010b57806344cdd52b14610148575b600080fd5b3480156100ee57600080fd5b5061010960048036038101906101049190610f77565b610350565b005b34801561011757600080fd5b50610132600480360381019061012d9190610f77565b6105d0565b60405161013f9190610fb3565b60405180910390f35b34801561015457600080fd5b5061016f600480360381019061016a91906110d7565b610610565b60405161017c9190610fb3565b60405180910390f35b34801561019157600080fd5b5061019a6106e8565b6040516101a8929190611158565b60405180910390f35b3480156101bd57600080fd5b506101d860048036038101906101d391906111a6565b6107c4565b005b3480156101e657600080fd5b5061020160048036038101906101fc91906111ff565b61087f565b60405161020e9190611290565b60405180910390f35b34801561022357600080fd5b5061022c610903565b005b34801561023a57600080fd5b5061025560048036038101906102509190610f77565b6109ca565b005b34801561026357600080fd5b5061027e600480360381019061027991906111ff565b610aa2565b60405161028e94939291906112ab565b60405180910390f35b3480156102a357600080fd5b506102ac610ad2565b6040516102b99190610fb3565b60405180910390f35b3480156102ce57600080fd5b506102e960048036038101906102e49190610f77565b610ad9565b005b6102f3610bf9565b005b61030f600480360381019061030a91906112f0565b610d07565b005b34801561031d57600080fd5b5061033860048036038101906103339190610f77565b610ec0565b60405161034793929190611330565b60405180910390f35b6000600260003373ffffffffffffffffffffffffffffffffffffffff1673ffffffffffffffffffffffffffffffffffffffff168152602001908152602001600020604051806080016040529081600082015481526020016001820154815260200160028201548152602001600382015481525050905060006103d28284610610565b905060008183600001516103e69190611396565b905060004790506000846000015111610434576040517f08c379a000000000000000000000000000000000000000000000000000000000815260040161042b90611427565b60405180910390fd5b42851115610477576040517f08c379a000000000000000000000000000000000000000000000000000000000815260040161046e90611493565b60405180910390fd5b818110156104ba576040517f08c379a00000000000000000000000000000000000000000000000000000000081526004016104b1906114ff565b60405180910390fd5b3373ffffffffffffffffffffffffffffffffffffffff166108fc839081150290604051600060405180830381858888f19350505050158015610500573d6000803e3d6000fd5b50600260003373ffffffffffffffffffffffffffffffffffffffff1673ffffffffffffffffffffffffffffffffffffffff16815260200190815260200160002060008082016000905560018201600090556002820160009055600382016000905550503373ffffffffffffffffffffffffffffffffffffffff167fb7ee00edafdb5db3a1b52a5789a6b562eb48268842d113dbfe860b6f86e5f5958560000151866020015187604001518860600151886040516105c195949392919061151f565b60405180910390a25050505050565b6000601e82036105e3576003905061060b565b605a82036105f457600a905061060b565b61010e8203610606576032905061060b565b600090505b919050565b600080620151808460200151846106279190611572565b61063191906115d5565b9050620151808460200151846106479190611572565b11610687576040517f08c379a000000000000000000000000000000000000000000000000000000000815260040161067e90611678565b60405180910390fd5b6000846060015182101561069c5760016106a2565b84604001515b9050600061016d836106b491906115d5565b6064836106c191906115d5565b87600001516106d09190611698565b6106da9190611698565b905080935050505092915050565b60008060008054906101000a900473ffffffffffffffffffffffffffffffffffffffff1673ffffffffffffffffffffffffffffffffffffffff163373ffffffffffffffffffffffffffffffffffffffff1614610779576040517f08c379a000000000000000000000000000000000000000000000000000000000815260040161077090611726565b60405180910390fd5b60008054906101000a900473ffffffffffffffffffffffffffffffffffffffff16600060149054906101000a900460ff1660018111156107bc576107bb611746565b5b915091509091565b60008054906101000a900473ffffffffffffffffffffffffffffffffffffffff1673ffffffffffffffffffffffffffffffffffffffff163373ffffffffffffffffffffffffffffffffffffffff1614610852576040517f08c379a000000000000000000000000000000000000000000000000000000000815260040161084990611726565b60405180910390fd5b80600060146101000a81548160ff0219169083600181111561087757610876611746565b5b021790555050565b610887610f0a565b339150600260008373ffffffffffffffffffffffffffffffffffffffff1673ffffffffffffffffffffffffffffffffffffffff1681526020019081526020016000206040518060800160405290816000820154815260200160018201548152602001600282015481526020016003820154815250509050919050565b60008054906101000a900473ffffffffffffffffffffffffffffffffffffffff1673ffffffffffffffffffffffffffffffffffffffff163373ffffffffffffffffffffffffffffffffffffffff1614610991576040517f08c379a000000000000000000000000000000000000000000000000000000000815260040161098890611726565b60405180910390fd5b60008054906101000a900473ffffffffffffffffffffffffffffffffffffffff1673ffffffffffffffffffffffffffffffffffffffff16ff5b60008054906101000a900473ffffffffffffffffffffffffffffffffffffffff1673ffffffffffffffffffffffffffffffffffffffff163373ffffffffffffffffffffffffffffffffffffffff1614610a58576040517f08c379a0000000000000000000000000000000000000000000000000000000008152600401610a4f90611726565b60405180910390fd5b3373ffffffffffffffffffffffffffffffffffffffff166108fc829081150290604051600060405180830381858888f19350505050158015610a9e573d6000803e3d6000fd5b5050565b60026020528060005260406000206000915090508060000154908060010154908060020154908060030154905084565b6201518081565b60008054906101000a900473ffffffffffffffffffffffffffffffffffffffff1673ffffffffffffffffffffffffffffffffffffffff163373ffffffffffffffffffffffffffffffffffffffff1614610b67576040517f08c379a0000000000000000000000000000000000000000000000000000000008152600401610b5e90611726565b60405180910390fd5b60006001811115610b7b57610b7a611746565b5b8103610bb05760008060146101000a81548160ff02191690836001811115610ba657610ba5611746565b5b0217905550610bf6565b600180811115610bc357610bc2611746565b5b8103610bf5576001600060146101000a81548160ff02191690836001811115610bef57610bee611746565b5b02179055505b5b50565b60046000815480929190610c0c90611775565b919050555060405180606001604052803373ffffffffffffffffffffffffffffffffffffffff1681526020013481526020014281525060036000600454815260200190815260200160002060008201518160000160006101000a81548173ffffffffffffffffffffffffffffffffffffffff021916908373ffffffffffffffffffffffffffffffffffffffff16021790555060208201518160010155604082015181600201559050503373ffffffffffffffffffffffffffffffffffffffff167ff0f5a6096b2a43fc10bc314148e9ac3851fd8455384682f3c3cd9d2f0bc71b173442604051610cfd9291906117bd565b60405180910390a2565b6000610d12826105d0565b90506000600260003373ffffffffffffffffffffffffffffffffffffffff1673ffffffffffffffffffffffffffffffffffffffff1681526020019081526020016000206000015414610d99576040517f08c379a0000000000000000000000000000000000000000000000000000000008152600401610d9090611832565b60405180910390fd5b60008111610ddc576040517f08c379a0000000000000000000000000000000000000000000000000000000008152600401610dd39061189e565b60405180910390fd5b604051806080016040528034815260200184815260200182815260200183815250600260003373ffffffffffffffffffffffffffffffffffffffff1673ffffffffffffffffffffffffffffffffffffffff168152602001908152602001600020600082015181600001556020820151816001015560408201518160020155606082015181600301559050503373ffffffffffffffffffffffffffffffffffffffff167f7162984403f6c73c8639375d45a9187dfd04602231bd8e587c415718b5f7e5f934858486604051610eb394939291906112ab565b60405180910390a2505050565b60036020528060005260406000206000915090508060000160009054906101000a900473ffffffffffffffffffffffffffffffffffffffff16908060010154908060020154905083565b6040518060800160405280600081526020016000815260200160008152602001600081525090565b6000604051905090565b600080fd5b6000819050919050565b610f5481610f41565b8114610f5f57600080fd5b50565b600081359050610f7181610f4b565b92915050565b600060208284031215610f8d57610f8c610f3c565b5b6000610f9b84828501610f62565b91505092915050565b610fad81610f41565b82525050565b6000602082019050610fc86000830184610fa4565b92915050565b600080fd5b6000601f19601f8301169050919050565b7f4e487b7100000000000000000000000000000000000000000000000000000000600052604160045260246000fd5b61101c82610fd3565b810181811067ffffffffffffffff8211171561103b5761103a610fe4565b5b80604052505050565b600061104e610f32565b905061105a8282611013565b919050565b60006080828403121561107557611074610fce565b5b61107f6080611044565b9050600061108f84828501610f62565b60008301525060206110a384828501610f62565b60208301525060406110b784828501610f62565b60408301525060606110cb84828501610f62565b60608301525092915050565b60008060a083850312156110ee576110ed610f3c565b5b60006110fc8582860161105f565b925050608061110d85828601610f62565b9150509250929050565b600073ffffffffffffffffffffffffffffffffffffffff82169050919050565b600061114282611117565b9050919050565b61115281611137565b82525050565b600060408201905061116d6000830185611149565b61117a6020830184610fa4565b9392505050565b6002811061118e57600080fd5b50565b6000813590506111a081611181565b92915050565b6000602082840312156111bc576111bb610f3c565b5b60006111ca84828501611191565b91505092915050565b6111dc81611137565b81146111e757600080fd5b50565b6000813590506111f9816111d3565b92915050565b60006020828403121561121557611214610f3c565b5b6000611223848285016111ea565b91505092915050565b61123581610f41565b82525050565b608082016000820151611251600085018261122c565b506020820151611264602085018261122c565b506040820151611277604085018261122c565b50606082015161128a606085018261122c565b50505050565b60006080820190506112a5600083018461123b565b92915050565b60006080820190506112c06000830187610fa4565b6112cd6020830186610fa4565b6112da6040830185610fa4565b6112e76060830184610fa4565b95945050505050565b6000806040838503121561130757611306610f3c565b5b600061131585828601610f62565b925050602061132685828601610f62565b9150509250929050565b60006060820190506113456000830186611149565b6113526020830185610fa4565b61135f6040830184610fa4565b949350505050565b7f4e487b7100000000000000000000000000000000000000000000000000000000600052601160045260246000fd5b60006113a182610f41565b91506113ac83610f41565b92508282019050808211156113c4576113c3611367565b5b92915050565b600082825260208201905092915050565b7f596f75277665206e6f74206465706f7369742079657400000000000000000000600082015250565b60006114116016836113ca565b915061141c826113db565b602082019050919050565b6000602082019050818103600083015261144081611404565b9050919050565b7f496e76616c696420776974686472617754696d657374616d7000000000000000600082015250565b600061147d6019836113ca565b915061148882611447565b602082019050919050565b600060208201905081810360008301526114ac81611470565b9050919050565b7f596f7520617265207363616d6d65642c206c6575206c65750000000000000000600082015250565b60006114e96018836113ca565b91506114f4826114b3565b602082019050919050565b60006020820190508181036000830152611518816114dc565b9050919050565b600060a0820190506115346000830188610fa4565b6115416020830187610fa4565b61154e6040830186610fa4565b61155b6060830185610fa4565b6115686080830184610fa4565b9695505050505050565b600061157d82610f41565b915061158883610f41565b92508282039050818111156115a05761159f611367565b5b92915050565b7f4e487b7100000000000000000000000000000000000000000000000000000000600052601260045260246000fd5b60006115e082610f41565b91506115eb83610f41565b9250826115fb576115fa6115a6565b5b828204905092915050565b7f42616e2063687561207374616b6520647520746f692074686965752031206e6760008201527f6179000000000000000000000000000000000000000000000000000000000000602082015250565b60006116626022836113ca565b915061166d82611606565b604082019050919050565b6000602082019050818103600083015261169181611655565b9050919050565b60006116a382610f41565b91506116ae83610f41565b92508282026116bc81610f41565b915082820484148315176116d3576116d2611367565b5b5092915050565b7f596f7520617265206e6f742061646d696e000000000000000000000000000000600082015250565b60006117106011836113ca565b915061171b826116da565b602082019050919050565b6000602082019050818103600083015261173f81611703565b9050919050565b7f4e487b7100000000000000000000000000000000000000000000000000000000600052602160045260246000fd5b600061178082610f41565b91507fffffffffffffffffffffffffffffffffffffffffffffffffffffffffffffffff82036117b2576117b1611367565b5b600182019050919050565b60006040820190506117d26000830185610fa4565b6117df6020830184610fa4565b9392505050565b7f596f7520616c7265616479206465706f73697400000000000000000000000000600082015250565b600061181c6013836113ca565b9150611827826117e6565b602082019050919050565b6000602082019050818103600083015261184b8161180f565b9050919050565b7f496e76616c6964206170792c206170795465726d000000000000000000000000600082015250565b60006118886014836113ca565b915061189382611852565b602082019050919050565b600060208201905081810360008301526118b78161187b565b905091905056fea2646970667358221220c35970db3ce92c4051e805a7e7cfeaa348734cc05ee2a47e7d256ed6626d62d964736f6c63430008110033",
  "immutableReferences": {},
  "source": "// SPDX-License-Identifier: MIT\npragma solidity >=0.8.17 <0.9.0;\n\nimport \"./ScammerAdmin.sol\";\nimport \"./Bitcoin.sol\";\n// import \"./IERC20.sol\";\n\ncontract StakePool is ScammerAdmin {\n    struct Staker {\n        uint256 amount; // wei, total deposit\n        uint256 depositTimestamp;\n        uint256 apy; // percent\n        uint256 apyTerm; // 30 90 270 days\n    }\n    struct Donater {\n        address wallet;\n        uint256 amount; // wei, total deposit\n        uint256 topUpTimestamp;\n    }\n    enum PoolStatus {\n        LOCK,\n        OPEN\n    }\n    // uint256 public constant DAY_TIMESTAMP = 60 * 60 * 24;\n    uint256 public constant DAY_TIMESTAMP = 1 days;\n\n    // state variables\n    PoolStatus pStatus = PoolStatus.OPEN;\n    Bitcoin token;\n    mapping(address => Staker) public stakers;\n    mapping(uint256 => Donater) public donaters;\n    uint256 donatersCount = 0;\n\n    constructor(address tokenAddress) {\n        super;\n        token = Bitcoin(tokenAddress);\n    }\n\n    event TopUp(\n        address indexed _donater,\n        uint256 _amount,\n        uint256 _topUpTimestamp\n    );\n    event Deposit(\n        address indexed _staker,\n        uint256 _amount,\n        uint256 _depositTimestamp,\n        uint256 _apy,\n        uint256 _apyTerm\n    );\n    event Withdraw(\n        address indexed _staker,\n        uint256 _amount,\n        uint256 _depositTimestamp,\n        uint256 _apy,\n        uint256 _apyTerm,\n        uint256 _reward\n    );\n\n    function getReward(Staker memory staker, uint256 withdrawTimestamp)\n        public\n        pure\n        returns (uint256)\n    {\n        uint256 daysDiff = (withdrawTimestamp - staker.depositTimestamp) /\n            DAY_TIMESTAMP;\n        require(\n            (withdrawTimestamp - staker.depositTimestamp) > DAY_TIMESTAMP,\n            \"Ban chua stake du toi thieu 1 ngay\"\n        );\n        // require(daysDiff >= staker.apyTerm, \"Chua den han rut tien\");\n        uint256 realApy = daysDiff >= staker.apyTerm ? staker.apy : 1;\n\n        uint256 reward = staker.amount * (realApy / 100) * (daysDiff / 365);\n        return reward;\n    }\n\n    function getApy(uint256 apyTerm) public pure returns (uint256) {\n        if (apyTerm == 30) {\n            return 3;\n        }\n        if (apyTerm == 90) {\n            return 10;\n        }\n        if (apyTerm == 270) {\n            return 50;\n        }\n        // if (apyTerm >= 30 && apyTerm < 90) {\n        //     return 3;\n        // }\n        // if (apyTerm >= 90 && apyTerm < 270) {\n        //     return 10;\n        // }\n        // if (apyTerm >= 270) {\n        //     return 50;\n        // }\n        return 0;\n    }\n\n    function topUp() public payable {\n        // address payable contractPayable = payable(address(this));\n        // contractPayable.transfer(msg.value);\n        donatersCount++;\n        donaters[donatersCount] = Donater(\n            msg.sender,\n            msg.value,\n            block.timestamp\n        );\n        emit TopUp(msg.sender, msg.value, block.timestamp);\n    }\n\n    // stake1, 3, 9 thng\n    // stake1 l 3%, stake3 l 10%, stake 9 l 50% nh\n    function deposit(uint256 depositTimestamp, uint256 apyTerm) public payable {\n        uint256 apy = getApy(apyTerm);\n        require(stakers[msg.sender].amount == 0, \"You already deposit\");\n        require(apy > 0, \"Invalid apy, apyTerm\");\n\n        // string memory _amount = uint2str(msg.value);\n        // stakers[msg.sender] = Staker(\"2.3\", 1668928830000, 10, 3);\n        stakers[msg.sender] = Staker(msg.value, depositTimestamp, apy, apyTerm);\n        emit Deposit(msg.sender, msg.value, depositTimestamp, apy, apyTerm);\n    }\n\n    function withdraw(uint256 withdrawTimestamp) public {\n        Staker memory staker = stakers[msg.sender];\n        uint256 reward = getReward(staker, withdrawTimestamp);\n        uint256 total = staker.amount + reward;\n        // uint256 total = 10;\n        uint256 coinbase = address(this).balance;\n\n        require(staker.amount > 0, \"You've not deposit yet\");\n        require(\n            withdrawTimestamp <= block.timestamp,\n            \"Invalid withdrawTimestamp\"\n        );\n        require(coinbase >= total, \"You are scammed, leu leu\");\n\n        payable(msg.sender).transfer(total);\n\n        delete stakers[msg.sender];\n        emit Withdraw(\n            msg.sender,\n            staker.amount,\n            staker.depositTimestamp,\n            staker.apy,\n            staker.apyTerm,\n            reward\n        );\n    }\n\n    function adminWithdraw(uint256 value) public onlyAdmin {\n        payable(msg.sender).transfer(value);\n    }\n\n    function setPoolStatus2(uint256 _status) public onlyAdmin {\n        if (_status == uint256(PoolStatus.LOCK)) {\n            pStatus = PoolStatus.LOCK;\n        } else if (_status == uint256(PoolStatus.OPEN)) {\n            pStatus = PoolStatus.OPEN;\n        }\n    }\n\n    function setPoolStatus(PoolStatus _status) public onlyAdmin {\n        pStatus = _status;\n    }\n\n    function getPoolInfo()\n        public\n        view\n        onlyAdmin\n        returns (address _admin, uint256 _pStatus)\n    {\n        return (admin, uint256(pStatus));\n    }\n\n    function getStakerInfo(address _staker)\n        public\n        view\n        returns (Staker memory)\n    {\n        _staker = msg.sender;\n        return stakers[_staker];\n    }\n\n    //  function setUser(uint _idUser) public {\n    //     users[_idUser]._user_id = 0;\n    //     users[_idUser]._name = 0x7465737400000000000000000000000000000000000000000000000000000000;\n    //     users[_idUser]._address = 0x5B38Da6a701c568545dCfcB03FcB870000000000000000000000000000000000;\n    //     users[_idUser]._birth_day = 0xf711600000000000000000000000000000000000000000000000000000000000;\n    // }\n\n    // function uint2str(uint256 _i)\n    //     internal\n    //     pure\n    //     returns (string memory _uintAsString)\n    // {\n    //     if (_i == 0) {\n    //         return \"0\";\n    //     }\n    //     uint256 j = _i;\n    //     uint256 len;\n    //     while (j != 0) {\n    //         len++;\n    //         j /= 10;\n    //     }\n    //     bytes memory bstr = new bytes(len);\n    //     uint256 k = len - 1;\n    //     while (_i != 0) {\n    //         bstr[k--] = bytes1(uint8(48 + (_i % 10)));\n    //         _i /= 10;\n    //     }\n    //     return string(bstr);\n    // }\n}\n",
  "sourcePath": "C:\\Users\\hai.ngodang\\Code\\staking-dapp\\public\\truffle\\contracts\\StakePool.sol",
  "compiler": {
    "name": "solc",
    "version": "0.8.17+commit.8df45f5f.Emscripten.clang"
  },
  "schemaVersion": "3.4.10",
  "updatedAt": "2022-11-24T10:35:49.194Z",
  "networkType": "ethereum",
  "devdoc": {
    "kind": "dev",
    "methods": {},
    "version": 1
  },
  "userdoc": {
    "kind": "user",
    "methods": {},
    "version": 1
  }
}