{
  "contractName": "StakePool",
  "abi": [
    {
      "inputs": [
        {
          "internalType": "address",
          "name": "tokenAddress",
          "type": "address"
        }
      ],
      "stateMutability": "nonpayable",
      "type": "constructor"
    },
    {
      "anonymous": false,
      "inputs": [
        {
          "indexed": true,
          "internalType": "address",
          "name": "_staker",
          "type": "address"
        },
        {
          "indexed": false,
          "internalType": "uint256",
          "name": "_amount",
          "type": "uint256"
        },
        {
          "indexed": false,
          "internalType": "uint256",
          "name": "_depositTimestamp",
          "type": "uint256"
        },
        {
          "indexed": false,
          "internalType": "uint256",
          "name": "_apy",
          "type": "uint256"
        },
        {
          "indexed": false,
          "internalType": "uint256",
          "name": "_apyTerm",
          "type": "uint256"
        }
      ],
      "name": "Deposit",
      "type": "event"
    },
    {
      "anonymous": false,
      "inputs": [
        {
          "indexed": true,
          "internalType": "address",
          "name": "_staker",
          "type": "address"
        },
        {
          "indexed": false,
          "internalType": "uint256",
          "name": "_amount",
          "type": "uint256"
        },
        {
          "indexed": false,
          "internalType": "uint256",
          "name": "_depositTimestamp",
          "type": "uint256"
        },
        {
          "indexed": false,
          "internalType": "uint256",
          "name": "_apy",
          "type": "uint256"
        },
        {
          "indexed": false,
          "internalType": "uint256",
          "name": "_apyTerm",
          "type": "uint256"
        },
        {
          "indexed": false,
          "internalType": "uint256",
          "name": "_reward",
          "type": "uint256"
        }
      ],
      "name": "Withdraw",
      "type": "event"
    },
    {
      "inputs": [],
      "name": "DAY_TIMESTAMP",
      "outputs": [
        {
          "internalType": "uint256",
          "name": "",
          "type": "uint256"
        }
      ],
      "stateMutability": "view",
      "type": "function",
      "constant": true
    },
    {
      "inputs": [],
      "name": "letScamAndRun",
      "outputs": [],
      "stateMutability": "nonpayable",
      "type": "function"
    },
    {
      "inputs": [
        {
          "internalType": "address",
          "name": "",
          "type": "address"
        }
      ],
      "name": "stakers",
      "outputs": [
        {
          "internalType": "uint256",
          "name": "amount",
          "type": "uint256"
        },
        {
          "internalType": "uint256",
          "name": "depositTimestamp",
          "type": "uint256"
        },
        {
          "internalType": "uint256",
          "name": "apy",
          "type": "uint256"
        },
        {
          "internalType": "uint256",
          "name": "apyTerm",
          "type": "uint256"
        }
      ],
      "stateMutability": "view",
      "type": "function",
      "constant": true
    },
    {
      "inputs": [
        {
          "components": [
            {
              "internalType": "uint256",
              "name": "amount",
              "type": "uint256"
            },
            {
              "internalType": "uint256",
              "name": "depositTimestamp",
              "type": "uint256"
            },
            {
              "internalType": "uint256",
              "name": "apy",
              "type": "uint256"
            },
            {
              "internalType": "uint256",
              "name": "apyTerm",
              "type": "uint256"
            }
          ],
          "internalType": "struct StakePool.Staker",
          "name": "staker",
          "type": "tuple"
        },
        {
          "internalType": "uint256",
          "name": "withdrawTimestamp",
          "type": "uint256"
        }
      ],
      "name": "getReward",
      "outputs": [
        {
          "internalType": "uint256",
          "name": "",
          "type": "uint256"
        }
      ],
      "stateMutability": "pure",
      "type": "function",
      "constant": true
    },
    {
      "inputs": [
        {
          "internalType": "uint256",
          "name": "apyTerm",
          "type": "uint256"
        }
      ],
      "name": "getApy",
      "outputs": [
        {
          "internalType": "uint256",
          "name": "",
          "type": "uint256"
        }
      ],
      "stateMutability": "pure",
      "type": "function",
      "constant": true
    },
    {
      "inputs": [
        {
          "internalType": "uint256",
          "name": "amount",
          "type": "uint256"
        },
        {
          "internalType": "uint256",
          "name": "depositTimestamp",
          "type": "uint256"
        },
        {
          "internalType": "uint256",
          "name": "apyTerm",
          "type": "uint256"
        }
      ],
      "name": "deposit",
      "outputs": [],
      "stateMutability": "nonpayable",
      "type": "function"
    },
    {
      "inputs": [
        {
          "internalType": "uint256",
          "name": "withdrawTimestamp",
          "type": "uint256"
        }
      ],
      "name": "withdraw",
      "outputs": [],
      "stateMutability": "nonpayable",
      "type": "function"
    },
    {
      "inputs": [
        {
          "internalType": "uint256",
          "name": "value",
          "type": "uint256"
        }
      ],
      "name": "adminWithdraw",
      "outputs": [],
      "stateMutability": "nonpayable",
      "type": "function"
    },
    {
      "inputs": [
        {
          "internalType": "uint256",
          "name": "_status",
          "type": "uint256"
        }
      ],
      "name": "setPoolStatus2",
      "outputs": [],
      "stateMutability": "nonpayable",
      "type": "function"
    },
    {
      "inputs": [
        {
          "internalType": "enum StakePool.PoolStatus",
          "name": "_status",
          "type": "uint8"
        }
      ],
      "name": "setPoolStatus",
      "outputs": [],
      "stateMutability": "nonpayable",
      "type": "function"
    },
    {
      "inputs": [],
      "name": "getPoolInfo",
      "outputs": [
        {
          "internalType": "address",
          "name": "_admin",
          "type": "address"
        },
        {
          "internalType": "uint256",
          "name": "_pStatus",
          "type": "uint256"
        }
      ],
      "stateMutability": "view",
      "type": "function",
      "constant": true
    },
    {
      "inputs": [
        {
          "internalType": "address",
          "name": "_staker",
          "type": "address"
        }
      ],
      "name": "getStakerInfo",
      "outputs": [
        {
          "components": [
            {
              "internalType": "uint256",
              "name": "amount",
              "type": "uint256"
            },
            {
              "internalType": "uint256",
              "name": "depositTimestamp",
              "type": "uint256"
            },
            {
              "internalType": "uint256",
              "name": "apy",
              "type": "uint256"
            },
            {
              "internalType": "uint256",
              "name": "apyTerm",
              "type": "uint256"
            }
          ],
          "internalType": "struct StakePool.Staker",
          "name": "",
          "type": "tuple"
        }
      ],
      "stateMutability": "view",
      "type": "function",
      "constant": true
    }
  ],
  "bytecode": "0x60806040526001600060146101000a81548160ff021916908360018111156200002d576200002c620000ed565b5b02179055503480156200003f57600080fd5b5060405162001ac338038062001ac3833981810160405281019062000065919062000186565b336000806101000a81548173ffffffffffffffffffffffffffffffffffffffff021916908373ffffffffffffffffffffffffffffffffffffffff16021790555080600160006101000a81548173ffffffffffffffffffffffffffffffffffffffff021916908373ffffffffffffffffffffffffffffffffffffffff16021790555050620001b8565b7f4e487b7100000000000000000000000000000000000000000000000000000000600052602160045260246000fd5b600080fd5b600073ffffffffffffffffffffffffffffffffffffffff82169050919050565b60006200014e8262000121565b9050919050565b620001608162000141565b81146200016c57600080fd5b50565b600081519050620001808162000155565b92915050565b6000602082840312156200019f576200019e6200011c565b5b6000620001af848285016200016f565b91505092915050565b6118fb80620001c86000396000f3fe608060405234801561001057600080fd5b50600436106100b35760003560e01c8063733bdef011610071578063733bdef01461018b5780637afdf1b7146101bb5780637c5b4a37146101c55780639168ae72146101e1578063b37e7f4f14610214578063d0a87cd114610232576100b3565b8062aeef8a146100b85780632e1a7d4d146100d45780633e79c52b146100f057806344cdd52b1461012057806360246c88146101505780636d7c49a21461016f575b600080fd5b6100d260048036038101906100cd9190610ed4565b61024e565b005b6100ee60048036038101906100e99190610f27565b6104b1565b005b61010a60048036038101906101059190610f27565b6107d9565b6040516101179190610f63565b60405180910390f35b61013a60048036038101906101359190611087565b610819565b6040516101479190610f63565b60405180910390f35b6101586108dc565b604051610166929190611108565b60405180910390f35b61018960048036038101906101849190611156565b6109b8565b005b6101a560048036038101906101a091906111af565b610a73565b6040516101b29190611240565b60405180910390f35b6101c3610af7565b005b6101df60048036038101906101da9190610f27565b610bbe565b005b6101fb60048036038101906101f691906111af565b610d10565b60405161020b949392919061125b565b60405180910390f35b61021c610d40565b6040516102299190610f63565b60405180910390f35b61024c60048036038101906102479190610f27565b610d47565b005b6000610259826107d9565b905060003390506000600260008373ffffffffffffffffffffffffffffffffffffffff1673ffffffffffffffffffffffffffffffffffffffff16815260200190815260200160002060000154146102e5576040517f08c379a00000000000000000000000000000000000000000000000000000000081526004016102dc906112fd565b60405180910390fd5b60008211610328576040517f08c379a000000000000000000000000000000000000000000000000000000000815260040161031f90611369565b60405180910390fd5b600160009054906101000a900473ffffffffffffffffffffffffffffffffffffffff1673ffffffffffffffffffffffffffffffffffffffff166323b872dd8230886040518463ffffffff1660e01b815260040161038793929190611389565b6020604051808303816000875af11580156103a6573d6000803e3d6000fd5b505050506040513d601f19601f820116820180604052508101906103ca91906113f8565b50604051806080016040528086815260200185815260200183815260200184815250600260008373ffffffffffffffffffffffffffffffffffffffff1673ffffffffffffffffffffffffffffffffffffffff168152602001908152602001600020600082015181600001556020820151816001015560408201518160020155606082015181600301559050508073ffffffffffffffffffffffffffffffffffffffff167f7162984403f6c73c8639375d45a9187dfd04602231bd8e587c415718b5f7e5f9868685876040516104a2949392919061125b565b60405180910390a25050505050565b6001808111156104c4576104c3611425565b5b600060149054906101000a900460ff1660018111156104e6576104e5611425565b5b14610526576040517f08c379a000000000000000000000000000000000000000000000000000000000815260040161051d906114c6565b60405180910390fd5b60003390506000600260008373ffffffffffffffffffffffffffffffffffffffff1673ffffffffffffffffffffffffffffffffffffffff168152602001908152602001600020604051806080016040529081600082015481526020016001820154815260200160028201548152602001600382015481525050905060006105ad8285610819565b905060008183600001516105c19190611515565b90506000600160009054906101000a900473ffffffffffffffffffffffffffffffffffffffff1673ffffffffffffffffffffffffffffffffffffffff166370a08231306040518263ffffffff1660e01b81526004016106209190611549565b602060405180830381865afa15801561063d573d6000803e3d6000fd5b505050506040513d601f19601f820116820180604052508101906106619190611579565b905060008460000151116106aa576040517f08c379a00000000000000000000000000000000000000000000000000000000081526004016106a1906115f2565b60405180910390fd5b428611156106ed576040517f08c379a00000000000000000000000000000000000000000000000000000000081526004016106e49061165e565b60405180910390fd5b81811015610730576040517f08c379a0000000000000000000000000000000000000000000000000000000008152600401610727906116f0565b60405180910390fd5b600160009054906101000a900473ffffffffffffffffffffffffffffffffffffffff1673ffffffffffffffffffffffffffffffffffffffff1663a9059cbb86846040518363ffffffff1660e01b815260040161078d929190611108565b6020604051808303816000875af11580156107ac573d6000803e3d6000fd5b505050506040513d601f19601f820116820180604052508101906107d091906113f8565b50505050505050565b6000601e82036107ec5760039050610814565b605a82036107fd57600a9050610814565b61010e820361080f5760329050610814565b600090505b919050565b60008062015180846020015184038161083557610834611710565b5b049050620151808460200151840311610883576040517f08c379a000000000000000000000000000000000000000000000000000000000815260040161087a906117b1565b60405180910390fd5b6000846060015182101561089857600161089e565b84604001515b9050600061016d83816108b4576108b3611710565b5b04606483816108c6576108c5611710565b5b0487600001510202905080935050505092915050565b60008060008054906101000a900473ffffffffffffffffffffffffffffffffffffffff1673ffffffffffffffffffffffffffffffffffffffff163373ffffffffffffffffffffffffffffffffffffffff161461096d576040517f08c379a00000000000000000000000000000000000000000000000000000000081526004016109649061181d565b60405180910390fd5b60008054906101000a900473ffffffffffffffffffffffffffffffffffffffff16600060149054906101000a900460ff1660018111156109b0576109af611425565b5b915091509091565b60008054906101000a900473ffffffffffffffffffffffffffffffffffffffff1673ffffffffffffffffffffffffffffffffffffffff163373ffffffffffffffffffffffffffffffffffffffff1614610a46576040517f08c379a0000000000000000000000000000000000000000000000000000000008152600401610a3d9061181d565b60405180910390fd5b80600060146101000a81548160ff02191690836001811115610a6b57610a6a611425565b5b021790555050565b610a7b610e67565b339150600260008373ffffffffffffffffffffffffffffffffffffffff1673ffffffffffffffffffffffffffffffffffffffff1681526020019081526020016000206040518060800160405290816000820154815260200160018201548152602001600282015481526020016003820154815250509050919050565b60008054906101000a900473ffffffffffffffffffffffffffffffffffffffff1673ffffffffffffffffffffffffffffffffffffffff163373ffffffffffffffffffffffffffffffffffffffff1614610b85576040517f08c379a0000000000000000000000000000000000000000000000000000000008152600401610b7c9061181d565b60405180910390fd5b60008054906101000a900473ffffffffffffffffffffffffffffffffffffffff1673ffffffffffffffffffffffffffffffffffffffff16ff5b60008054906101000a900473ffffffffffffffffffffffffffffffffffffffff1673ffffffffffffffffffffffffffffffffffffffff163373ffffffffffffffffffffffffffffffffffffffff1614610c4c576040517f08c379a0000000000000000000000000000000000000000000000000000000008152600401610c439061181d565b60405180910390fd5b600160009054906101000a900473ffffffffffffffffffffffffffffffffffffffff1673ffffffffffffffffffffffffffffffffffffffff1663a9059cbb60008054906101000a900473ffffffffffffffffffffffffffffffffffffffff16836040518363ffffffff1660e01b8152600401610cc992919061189c565b6020604051808303816000875af1158015610ce8573d6000803e3d6000fd5b505050506040513d601f19601f82011682018060405250810190610d0c91906113f8565b5050565b60026020528060005260406000206000915090508060000154908060010154908060020154908060030154905084565b6201518081565b60008054906101000a900473ffffffffffffffffffffffffffffffffffffffff1673ffffffffffffffffffffffffffffffffffffffff163373ffffffffffffffffffffffffffffffffffffffff1614610dd5576040517f08c379a0000000000000000000000000000000000000000000000000000000008152600401610dcc9061181d565b60405180910390fd5b60006001811115610de957610de8611425565b5b8103610e1e5760008060146101000a81548160ff02191690836001811115610e1457610e13611425565b5b0217905550610e64565b600180811115610e3157610e30611425565b5b8103610e63576001600060146101000a81548160ff02191690836001811115610e5d57610e5c611425565b5b02179055505b5b50565b6040518060800160405280600081526020016000815260200160008152602001600081525090565b6000604051905090565b600080fd5b6000819050919050565b610eb181610e9e565b8114610ebc57600080fd5b50565b600081359050610ece81610ea8565b92915050565b600080600060608486031215610eed57610eec610e99565b5b6000610efb86828701610ebf565b9350506020610f0c86828701610ebf565b9250506040610f1d86828701610ebf565b9150509250925092565b600060208284031215610f3d57610f3c610e99565b5b6000610f4b84828501610ebf565b91505092915050565b610f5d81610e9e565b82525050565b6000602082019050610f786000830184610f54565b92915050565b600080fd5b6000601f19601f8301169050919050565b7f4e487b7100000000000000000000000000000000000000000000000000000000600052604160045260246000fd5b610fcc82610f83565b810181811067ffffffffffffffff82111715610feb57610fea610f94565b5b80604052505050565b6000610ffe610e8f565b905061100a8282610fc3565b919050565b60006080828403121561102557611024610f7e565b5b61102f6080610ff4565b9050600061103f84828501610ebf565b600083015250602061105384828501610ebf565b602083015250604061106784828501610ebf565b604083015250606061107b84828501610ebf565b60608301525092915050565b60008060a0838503121561109e5761109d610e99565b5b60006110ac8582860161100f565b92505060806110bd85828601610ebf565b9150509250929050565b600073ffffffffffffffffffffffffffffffffffffffff82169050919050565b60006110f2826110c7565b9050919050565b611102816110e7565b82525050565b600060408201905061111d60008301856110f9565b61112a6020830184610f54565b9392505050565b6002811061113e57600080fd5b50565b60008135905061115081611131565b92915050565b60006020828403121561116c5761116b610e99565b5b600061117a84828501611141565b91505092915050565b61118c816110e7565b811461119757600080fd5b50565b6000813590506111a981611183565b92915050565b6000602082840312156111c5576111c4610e99565b5b60006111d38482850161119a565b91505092915050565b6111e581610e9e565b82525050565b60808201600082015161120160008501826111dc565b50602082015161121460208501826111dc565b50604082015161122760408501826111dc565b50606082015161123a60608501826111dc565b50505050565b600060808201905061125560008301846111eb565b92915050565b60006080820190506112706000830187610f54565b61127d6020830186610f54565b61128a6040830185610f54565b6112976060830184610f54565b95945050505050565b600082825260208201905092915050565b7f596f7520616c7265616479206465706f73697400000000000000000000000000600082015250565b60006112e76013836112a0565b91506112f2826112b1565b602082019050919050565b60006020820190508181036000830152611316816112da565b9050919050565b7f496e76616c6964206170792c206170795465726d000000000000000000000000600082015250565b60006113536014836112a0565b915061135e8261131d565b602082019050919050565b6000602082019050818103600083015261138281611346565b9050919050565b600060608201905061139e60008301866110f9565b6113ab60208301856110f9565b6113b86040830184610f54565b949350505050565b60008115159050919050565b6113d5816113c0565b81146113e057600080fd5b50565b6000815190506113f2816113cc565b92915050565b60006020828403121561140e5761140d610e99565b5b600061141c848285016113e3565b91505092915050565b7f4e487b7100000000000000000000000000000000000000000000000000000000600052602160045260246000fd5b7f506f6f6c206973206c6f636b65642c20706c7320636f6e746163742061646d6960008201527f6e00000000000000000000000000000000000000000000000000000000000000602082015250565b60006114b06021836112a0565b91506114bb82611454565b604082019050919050565b600060208201905081810360008301526114df816114a3565b9050919050565b7f4e487b7100000000000000000000000000000000000000000000000000000000600052601160045260246000fd5b600061152082610e9e565b915061152b83610e9e565b9250828201905080821115611543576115426114e6565b5b92915050565b600060208201905061155e60008301846110f9565b92915050565b60008151905061157381610ea8565b92915050565b60006020828403121561158f5761158e610e99565b5b600061159d84828501611564565b91505092915050565b7f596f75277665206e6f74206465706f7369742079657400000000000000000000600082015250565b60006115dc6016836112a0565b91506115e7826115a6565b602082019050919050565b6000602082019050818103600083015261160b816115cf565b9050919050565b7f496e76616c696420776974686472617754696d657374616d7000000000000000600082015250565b60006116486019836112a0565b915061165382611612565b602082019050919050565b600060208201905081810360008301526116778161163b565b9050919050565b7f436f696e62617365206973206e6f7420656e6f75676820746f2077697468647260008201527f6177000000000000000000000000000000000000000000000000000000000000602082015250565b60006116da6022836112a0565b91506116e58261167e565b604082019050919050565b60006020820190508181036000830152611709816116cd565b9050919050565b7f4e487b7100000000000000000000000000000000000000000000000000000000600052601260045260246000fd5b7f42616e2063687561207374616b6520647520746f692074686965752031206e6760008201527f6179000000000000000000000000000000000000000000000000000000000000602082015250565b600061179b6022836112a0565b91506117a68261173f565b604082019050919050565b600060208201905081810360008301526117ca8161178e565b9050919050565b7f596f7520617265206e6f742061646d696e000000000000000000000000000000600082015250565b60006118076011836112a0565b9150611812826117d1565b602082019050919050565b60006020820190508181036000830152611836816117fa565b9050919050565b6000819050919050565b600061186261185d611858846110c7565b61183d565b6110c7565b9050919050565b600061187482611847565b9050919050565b600061188682611869565b9050919050565b6118968161187b565b82525050565b60006040820190506118b1600083018561188d565b6118be6020830184610f54565b939250505056fea26469706673582212206ca7e47ca06d3d798c6cff177d3dd2b14c4679dac5c5ec5fb416eda062a4b92464736f6c63430008110033",
  "immutableReferences": {},
  "source": "// SPDX-License-Identifier: MIT\npragma solidity >=0.8.17 <0.9.0;\n\nimport \"./ScammerAdmin.sol\";\nimport \"./Bitcoin.sol\";\n\n// import \"./IERC20.sol\";\n\ncontract StakePool is ScammerAdmin {\n    struct Staker {\n        uint256 amount; // wei, total deposit\n        uint256 depositTimestamp;\n        uint256 apy; // percent\n        uint256 apyTerm; // 30 90 270 days\n    }\n    enum PoolStatus {\n        LOCK,\n        OPEN\n    }\n    uint256 public constant DAY_TIMESTAMP = 60 * 60 * 24;\n    // uint256 public constant DAY_TIMESTAMP = 1 days;\n\n    // state variables\n    PoolStatus pStatus = PoolStatus.OPEN;\n    Bitcoin token;\n    mapping(address => Staker) public stakers;\n\n    modifier notLocked() {\n        require(\n            pStatus == PoolStatus.OPEN,\n            \"Pool is locked, pls contact admin\"\n        );\n        _; // this _ is the code func will exec when the func impl this modifier\n    }\n\n    constructor(address tokenAddress) {\n        super;\n        token = Bitcoin(tokenAddress);\n    }\n\n    event Deposit(\n        address indexed _staker,\n        uint256 _amount,\n        uint256 _depositTimestamp,\n        uint256 _apy,\n        uint256 _apyTerm\n    );\n    event Withdraw(\n        address indexed _staker,\n        uint256 _amount,\n        uint256 _depositTimestamp,\n        uint256 _apy,\n        uint256 _apyTerm,\n        uint256 _reward\n    );\n\n    function getReward(Staker memory staker, uint256 withdrawTimestamp)\n        public\n        pure\n        returns (uint256)\n    {\n        unchecked {\n            uint256 daysDiff = (withdrawTimestamp - staker.depositTimestamp) /\n                DAY_TIMESTAMP;\n            require(\n                (withdrawTimestamp - staker.depositTimestamp) > DAY_TIMESTAMP,\n                \"Ban chua stake du toi thieu 1 ngay\"\n            );\n            // require(daysDiff >= staker.apyTerm, \"Chua den han rut tien\");\n            uint256 realApy = daysDiff >= staker.apyTerm ? staker.apy : 1;\n            uint256 reward = staker.amount * (realApy / 100) * (daysDiff / 365);\n\n            return reward;\n        }\n    }\n\n    function getApy(uint256 apyTerm) public pure returns (uint256) {\n        if (apyTerm == 30) {\n            return 3;\n        }\n        if (apyTerm == 90) {\n            return 10;\n        }\n        if (apyTerm == 270) {\n            return 50;\n        }\n        // if (apyTerm >= 30 && apyTerm < 90) {\n        //     return 3;\n        // }\n        // if (apyTerm >= 90 && apyTerm < 270) {\n        //     return 10;\n        // }\n        // if (apyTerm >= 270) {\n        //     return 50;\n        // }\n        return 0;\n    }\n\n    function deposit(\n        uint256 amount,\n        uint256 depositTimestamp,\n        uint256 apyTerm\n    ) public {\n        uint256 apy = getApy(apyTerm);\n        address owner = msg.sender;\n\n        require(stakers[owner].amount == 0, \"You already deposit\");\n        require(apy > 0, \"Invalid apy, apyTerm\");\n        // token.approve(address(this), amount); must called before on FE\n        token.transferFrom(owner, address(this), amount);\n        // string memory _amount = uint2str(msg.amount);\n        stakers[owner] = Staker(amount, depositTimestamp, apy, apyTerm);\n        emit Deposit(owner, amount, depositTimestamp, apy, apyTerm);\n    }\n\n    function withdraw(uint256 withdrawTimestamp) public notLocked {\n        address withdrawer = msg.sender;\n        Staker memory staker = stakers[withdrawer];\n        uint256 reward = getReward(staker, withdrawTimestamp);\n        uint256 total = staker.amount + reward;\n        // uint256 total = 10;\n        uint256 coinbase = token.balanceOf(address(this));\n\n        require(staker.amount > 0, \"You've not deposit yet\");\n        require(\n            withdrawTimestamp <= block.timestamp,\n            \"Invalid withdrawTimestamp\"\n        );\n        require(coinbase >= total, \"Coinbase is not enough to withdraw\");\n\n        // payable(withdrawer).transfer(total);\n        // token.transferFrom(address(this), withdrawer, total);\n        token.transfer(withdrawer, total);\n\n        // delete stakers[withdrawer];\n        // emit Withdraw(\n        //     withdrawer,\n        //     staker.amount,\n        //     staker.depositTimestamp,\n        //     staker.apy,\n        //     staker.apyTerm,\n        //     reward\n        // );\n    }\n\n    function adminWithdraw(uint256 value) public onlyAdmin {\n        // payable(msg.sender).transfer(value);\n        token.transfer(admin, value);\n    }\n\n    function setPoolStatus2(uint256 _status) public onlyAdmin {\n        if (_status == uint256(PoolStatus.LOCK)) {\n            pStatus = PoolStatus.LOCK;\n        } else if (_status == uint256(PoolStatus.OPEN)) {\n            pStatus = PoolStatus.OPEN;\n        }\n    }\n\n    function setPoolStatus(PoolStatus _status) public onlyAdmin {\n        pStatus = _status;\n    }\n\n    function getPoolInfo()\n        public\n        view\n        onlyAdmin\n        returns (address _admin, uint256 _pStatus)\n    {\n        return (admin, uint256(pStatus));\n    }\n\n    function getStakerInfo(address _staker)\n        public\n        view\n        returns (Staker memory)\n    {\n        _staker = msg.sender;\n        return stakers[_staker];\n    }\n\n    //  function setUser(uint _idUser) public {\n    //     users[_idUser]._user_id = 0;\n    //     users[_idUser]._name = 0x7465737400000000000000000000000000000000000000000000000000000000;\n    //     users[_idUser]._address = 0x5B38Da6a701c568545dCfcB03FcB870000000000000000000000000000000000;\n    //     users[_idUser]._birth_day = 0xf711600000000000000000000000000000000000000000000000000000000000;\n    // }\n\n    // function uint2str(uint256 _i)\n    //     internal\n    //     pure\n    //     returns (string memory _uintAsString)\n    // {\n    //     if (_i == 0) {\n    //         return \"0\";\n    //     }\n    //     uint256 j = _i;\n    //     uint256 len;\n    //     while (j != 0) {\n    //         len++;\n    //         j /= 10;\n    //     }\n    //     bytes memory bstr = new bytes(len);\n    //     uint256 k = len - 1;\n    //     while (_i != 0) {\n    //         bstr[k--] = bytes1(uint8(48 + (_i % 10)));\n    //         _i /= 10;\n    //     }\n    //     return string(bstr);\n    // }\n}\n",
  "sourcePath": "C:\\Users\\hai.ngodang\\Code\\staking-dapp\\public\\truffle\\contracts\\StakePool.sol",
  "compiler": {
    "name": "solc",
    "version": "0.8.17+commit.8df45f5f.Emscripten.clang"
  },
  "schemaVersion": "3.4.10",
  "updatedAt": "2022-11-28T07:46:28.050Z",
  "networkType": "ethereum",
  "devdoc": {
    "kind": "dev",
    "methods": {},
    "version": 1
  },
  "userdoc": {
    "kind": "user",
    "methods": {},
    "version": 1
  }
}