{
  "contractName": "StakePool",
  "abi": [
    {
      "anonymous": false,
      "inputs": [
        {
          "indexed": true,
          "internalType": "address",
          "name": "_staker",
          "type": "address"
        },
        {
          "indexed": false,
          "internalType": "uint256",
          "name": "_balance",
          "type": "uint256"
        },
        {
          "indexed": false,
          "internalType": "uint256",
          "name": "_depositTimestamp",
          "type": "uint256"
        },
        {
          "indexed": false,
          "internalType": "uint256",
          "name": "_apy",
          "type": "uint256"
        },
        {
          "indexed": false,
          "internalType": "uint256",
          "name": "_apyTerm",
          "type": "uint256"
        }
      ],
      "name": "Deposit",
      "type": "event"
    },
    {
      "anonymous": false,
      "inputs": [
        {
          "indexed": true,
          "internalType": "address",
          "name": "_staker",
          "type": "address"
        },
        {
          "indexed": false,
          "internalType": "uint256",
          "name": "_balance",
          "type": "uint256"
        },
        {
          "indexed": false,
          "internalType": "uint256",
          "name": "_depositTimestamp",
          "type": "uint256"
        },
        {
          "indexed": false,
          "internalType": "uint256",
          "name": "_apy",
          "type": "uint256"
        },
        {
          "indexed": false,
          "internalType": "uint256",
          "name": "_apyTerm",
          "type": "uint256"
        },
        {
          "indexed": false,
          "internalType": "uint256",
          "name": "_reward",
          "type": "uint256"
        }
      ],
      "name": "Withdraw",
      "type": "event"
    },
    {
      "inputs": [],
      "name": "DAY_TIMESTAMP",
      "outputs": [
        {
          "internalType": "uint256",
          "name": "",
          "type": "uint256"
        }
      ],
      "stateMutability": "view",
      "type": "function",
      "constant": true
    },
    {
      "inputs": [],
      "name": "letScamAndRun",
      "outputs": [],
      "stateMutability": "nonpayable",
      "type": "function"
    },
    {
      "inputs": [
        {
          "internalType": "address",
          "name": "",
          "type": "address"
        }
      ],
      "name": "stakers",
      "outputs": [
        {
          "internalType": "uint256",
          "name": "balance",
          "type": "uint256"
        },
        {
          "internalType": "uint256",
          "name": "depositTimestamp",
          "type": "uint256"
        },
        {
          "internalType": "uint256",
          "name": "apy",
          "type": "uint256"
        },
        {
          "internalType": "uint256",
          "name": "apyTerm",
          "type": "uint256"
        }
      ],
      "stateMutability": "view",
      "type": "function",
      "constant": true
    },
    {
      "inputs": [
        {
          "internalType": "uint256",
          "name": "timestamp",
          "type": "uint256"
        }
      ],
      "name": "getReward",
      "outputs": [
        {
          "internalType": "uint256",
          "name": "",
          "type": "uint256"
        }
      ],
      "stateMutability": "view",
      "type": "function",
      "constant": true
    },
    {
      "inputs": [
        {
          "internalType": "uint256",
          "name": "depositTimestamp",
          "type": "uint256"
        },
        {
          "internalType": "uint256",
          "name": "apy",
          "type": "uint256"
        },
        {
          "internalType": "uint256",
          "name": "apyTerm",
          "type": "uint256"
        }
      ],
      "name": "deposit",
      "outputs": [],
      "stateMutability": "payable",
      "type": "function",
      "payable": true
    },
    {
      "inputs": [
        {
          "internalType": "uint256",
          "name": "timestamp",
          "type": "uint256"
        }
      ],
      "name": "withdraw",
      "outputs": [],
      "stateMutability": "payable",
      "type": "function",
      "payable": true
    },
    {
      "inputs": [
        {
          "internalType": "uint256",
          "name": "_status",
          "type": "uint256"
        }
      ],
      "name": "setPoolStatus",
      "outputs": [],
      "stateMutability": "nonpayable",
      "type": "function"
    },
    {
      "inputs": [],
      "name": "getPoolInfo",
      "outputs": [
        {
          "internalType": "address",
          "name": "_admin",
          "type": "address"
        },
        {
          "internalType": "uint256",
          "name": "_pStatus",
          "type": "uint256"
        }
      ],
      "stateMutability": "view",
      "type": "function",
      "constant": true
    },
    {
      "inputs": [
        {
          "internalType": "address",
          "name": "_staker",
          "type": "address"
        }
      ],
      "name": "getStakerInfo",
      "outputs": [
        {
          "components": [
            {
              "internalType": "uint256",
              "name": "balance",
              "type": "uint256"
            },
            {
              "internalType": "uint256",
              "name": "depositTimestamp",
              "type": "uint256"
            },
            {
              "internalType": "uint256",
              "name": "apy",
              "type": "uint256"
            },
            {
              "internalType": "uint256",
              "name": "apyTerm",
              "type": "uint256"
            }
          ],
          "internalType": "struct StakePool.Staker",
          "name": "",
          "type": "tuple"
        }
      ],
      "stateMutability": "view",
      "type": "function",
      "constant": true
    }
  ],
  "bytecode": "0x60806040526001600060146101000a81548160ff0219169083600181111561002a57610029610081565b5b021790555034801561003b57600080fd5b50336000806101000a81548173ffffffffffffffffffffffffffffffffffffffff021916908373ffffffffffffffffffffffffffffffffffffffff1602179055506100b0565b7f4e487b7100000000000000000000000000000000000000000000000000000000600052602160045260246000fd5b610e91806100bf6000396000f3fe6080604052600436106100855760003560e01c8063733bdef011610059578063733bdef01461012b5780637afdf1b7146101685780639168ae721461017f578063b37e7f4f146101bf578063bc74ab63146101ea57610085565b8062aeef8a1461008a5780631c4b774b146100a65780632e1a7d4d146100e357806360246c88146100ff575b600080fd5b6100a4600480360381019061009f91906109fc565b610213565b005b3480156100b257600080fd5b506100cd60048036038101906100c89190610a4f565b6102f7565b6040516100da9190610a8b565b60405180910390f35b6100fd60048036038101906100f89190610a4f565b610325565b005b34801561010b57600080fd5b50610114610471565b604051610122929190610ae7565b60405180910390f35b34801561013757600080fd5b50610152600480360381019061014d9190610b3c565b6105db565b60405161015f9190610bcd565b60405180910390f35b34801561017457600080fd5b5061017d61065f565b005b34801561018b57600080fd5b506101a660048036038101906101a19190610b3c565b6107b4565b6040516101b69493929190610be8565b60405180910390f35b3480156101cb57600080fd5b506101d46107e4565b6040516101e19190610a8b565b60405180910390f35b3480156101f657600080fd5b50610211600480360381019061020c9190610a4f565b6107eb565b005b604051806080016040528034815260200184815260200183815260200182815250600160003373ffffffffffffffffffffffffffffffffffffffff1673ffffffffffffffffffffffffffffffffffffffff168152602001908152602001600020600082015181600001556020820151816001015560408201518160020155606082015181600301559050503373ffffffffffffffffffffffffffffffffffffffff167f7162984403f6c73c8639375d45a9187dfd04602231bd8e587c415718b5f7e5f9348585856040516102ea9493929190610be8565b60405180910390a2505050565b60008082426103069190610c5c565b9050600062015180826103199190610cbf565b90508092505050919050565b6000600160003373ffffffffffffffffffffffffffffffffffffffff1673ffffffffffffffffffffffffffffffffffffffff168152602001908152602001600020604051806080016040529081600082015481526020016001820154815260200160028201548152602001600382015481525050905060006103a6836102f7565b9050600160003373ffffffffffffffffffffffffffffffffffffffff1673ffffffffffffffffffffffffffffffffffffffff16815260200190815260200160002060008082016000905560018201600090556002820160009055600382016000905550503373ffffffffffffffffffffffffffffffffffffffff167fb7ee00edafdb5db3a1b52a5789a6b562eb48268842d113dbfe860b6f86e5f5953484602001518560400151866060015186604051610464959493929190610cf0565b60405180910390a2505050565b60008060008054906101000a900473ffffffffffffffffffffffffffffffffffffffff1673ffffffffffffffffffffffffffffffffffffffff163373ffffffffffffffffffffffffffffffffffffffff1614610502576040517f08c379a00000000000000000000000000000000000000000000000000000000081526004016104f990610da0565b60405180910390fd5b60008054906101000a900473ffffffffffffffffffffffffffffffffffffffff1673ffffffffffffffffffffffffffffffffffffffff163373ffffffffffffffffffffffffffffffffffffffff1614610590576040517f08c379a000000000000000000000000000000000000000000000000000000000815260040161058790610e0c565b60405180910390fd5b60008054906101000a900473ffffffffffffffffffffffffffffffffffffffff16600060149054906101000a900460ff1660018111156105d3576105d2610e2c565b5b915091509091565b6105e3610999565b339150600160008373ffffffffffffffffffffffffffffffffffffffff1673ffffffffffffffffffffffffffffffffffffffff1681526020019081526020016000206040518060800160405290816000820154815260200160018201548152602001600282015481526020016003820154815250509050919050565b60008054906101000a900473ffffffffffffffffffffffffffffffffffffffff1673ffffffffffffffffffffffffffffffffffffffff163373ffffffffffffffffffffffffffffffffffffffff16146106ed576040517f08c379a00000000000000000000000000000000000000000000000000000000081526004016106e490610da0565b60405180910390fd5b60008054906101000a900473ffffffffffffffffffffffffffffffffffffffff1673ffffffffffffffffffffffffffffffffffffffff163373ffffffffffffffffffffffffffffffffffffffff161461077b576040517f08c379a000000000000000000000000000000000000000000000000000000000815260040161077290610e0c565b60405180910390fd5b60008054906101000a900473ffffffffffffffffffffffffffffffffffffffff1673ffffffffffffffffffffffffffffffffffffffff16ff5b60016020528060005260406000206000915090508060000154908060010154908060020154908060030154905084565b6201518081565b60008054906101000a900473ffffffffffffffffffffffffffffffffffffffff1673ffffffffffffffffffffffffffffffffffffffff163373ffffffffffffffffffffffffffffffffffffffff1614610879576040517f08c379a000000000000000000000000000000000000000000000000000000000815260040161087090610da0565b60405180910390fd5b60008054906101000a900473ffffffffffffffffffffffffffffffffffffffff1673ffffffffffffffffffffffffffffffffffffffff163373ffffffffffffffffffffffffffffffffffffffff1614610907576040517f08c379a00000000000000000000000000000000000000000000000000000000081526004016108fe90610e0c565b60405180910390fd5b6000600181111561091b5761091a610e2c565b5b81036109505760008060146101000a81548160ff0219169083600181111561094657610945610e2c565b5b0217905550610996565b60018081111561096357610962610e2c565b5b8103610995576001600060146101000a81548160ff0219169083600181111561098f5761098e610e2c565b5b02179055505b5b50565b6040518060800160405280600081526020016000815260200160008152602001600081525090565b600080fd5b6000819050919050565b6109d9816109c6565b81146109e457600080fd5b50565b6000813590506109f6816109d0565b92915050565b600080600060608486031215610a1557610a146109c1565b5b6000610a23868287016109e7565b9350506020610a34868287016109e7565b9250506040610a45868287016109e7565b9150509250925092565b600060208284031215610a6557610a646109c1565b5b6000610a73848285016109e7565b91505092915050565b610a85816109c6565b82525050565b6000602082019050610aa06000830184610a7c565b92915050565b600073ffffffffffffffffffffffffffffffffffffffff82169050919050565b6000610ad182610aa6565b9050919050565b610ae181610ac6565b82525050565b6000604082019050610afc6000830185610ad8565b610b096020830184610a7c565b9392505050565b610b1981610ac6565b8114610b2457600080fd5b50565b600081359050610b3681610b10565b92915050565b600060208284031215610b5257610b516109c1565b5b6000610b6084828501610b27565b91505092915050565b610b72816109c6565b82525050565b608082016000820151610b8e6000850182610b69565b506020820151610ba16020850182610b69565b506040820151610bb46040850182610b69565b506060820151610bc76060850182610b69565b50505050565b6000608082019050610be26000830184610b78565b92915050565b6000608082019050610bfd6000830187610a7c565b610c0a6020830186610a7c565b610c176040830185610a7c565b610c246060830184610a7c565b95945050505050565b7f4e487b7100000000000000000000000000000000000000000000000000000000600052601160045260246000fd5b6000610c67826109c6565b9150610c72836109c6565b9250828203905081811115610c8a57610c89610c2d565b5b92915050565b7f4e487b7100000000000000000000000000000000000000000000000000000000600052601260045260246000fd5b6000610cca826109c6565b9150610cd5836109c6565b925082610ce557610ce4610c90565b5b828204905092915050565b600060a082019050610d056000830188610a7c565b610d126020830187610a7c565b610d1f6040830186610a7c565b610d2c6060830185610a7c565b610d396080830184610a7c565b9695505050505050565b600082825260208201905092915050565b7f596f7520617265206e6f742061646d696e2070617961626c6500000000000000600082015250565b6000610d8a601983610d43565b9150610d9582610d54565b602082019050919050565b60006020820190508181036000830152610db981610d7d565b9050919050565b7f596f7520617265206e6f742061646d696e000000000000000000000000000000600082015250565b6000610df6601183610d43565b9150610e0182610dc0565b602082019050919050565b60006020820190508181036000830152610e2581610de9565b9050919050565b7f4e487b7100000000000000000000000000000000000000000000000000000000600052602160045260246000fdfea2646970667358221220292c0c1d0faeb47af96024c93db965361fe09eb78427aa181e64bd54c43b1fcc64736f6c63430008110033",
  "immutableReferences": {},
  "source": "// SPDX-License-Identifier: MIT\npragma solidity >=0.8.17 <0.9.0;\n\nimport \"./ScammerAdmin.sol\";\n\ncontract StakePool is ScammerAdmin {\n    struct Staker {\n        uint256 balance; // wei, total deposit\n        uint256 depositTimestamp;\n        uint256 apy; // percent\n        uint256 apyTerm; // months\n    }\n    enum PoolStatus {\n        LOCK,\n        OPEN\n    }\n    uint256 public constant DAY_TIMESTAMP = 60 * 60 * 24;\n\n    // state variables\n    PoolStatus pStatus = PoolStatus.OPEN;\n    mapping(address => Staker) public stakers;\n\n    event Withdraw(\n        address indexed _staker,\n        uint256 _balance,\n        uint256 _depositTimestamp,\n        uint256 _apy,\n        uint256 _apyTerm,\n        uint256 _reward\n    );\n    event Deposit(\n        address indexed _staker,\n        uint256 _balance,\n        uint256 _depositTimestamp,\n        uint256 _apy,\n        uint256 _apyTerm\n    );\n\n    function getReward(uint256 timestamp) public view returns (uint256) {\n        // uint256 duration = now - timestamp;\n        uint256 timestampDiff = block.timestamp - timestamp;\n        uint256 daysDiff = timestampDiff / DAY_TIMESTAMP;\n        return daysDiff;\n    }\n\n    // stake1, 3, 9 thng\n    // stake1 l 3%, stake3 l 10%, stake 9 l 50% nh\n    function deposit(\n        uint256 depositTimestamp,\n        uint256 apy,\n        uint256 apyTerm\n    ) public payable {\n        // require(stakers[msg.sender].value === 0, \"You already deposit\");\n\n        // string memory _balance = uint2str(msg.value);\n        // stakers[msg.sender] = Staker(\"2.3\", 1668928830000, 10, 3);\n        stakers[msg.sender] = Staker(msg.value, depositTimestamp, apy, apyTerm);\n        // address payable contractPayable = payable(address(this));\n        // contractPayable.transfer(msg.value);\n\n        emit Deposit(msg.sender, msg.value, depositTimestamp, apy, apyTerm);\n    }\n\n    function withdraw(uint256 timestamp) public payable {\n        Staker memory staker = stakers[msg.sender];\n        uint256 reward = getReward(timestamp);\n\n        // require(address(this).balance < reward, \"You are scammed, leu leu\");\n\n        delete stakers[msg.sender];\n\n        emit Withdraw(\n            msg.sender,\n            msg.value,\n            staker.depositTimestamp,\n            staker.apy,\n            staker.apyTerm,\n            reward\n        );\n    }\n\n    function setPoolStatus(uint256 _status) public onlyAdmin {\n        if (_status == uint256(PoolStatus.LOCK)) {\n            pStatus = PoolStatus.LOCK;\n        } else if (_status == uint256(PoolStatus.OPEN)) {\n            pStatus = PoolStatus.OPEN;\n        }\n    }\n\n    function getPoolInfo()\n        public\n        view\n        onlyAdmin\n        returns (address _admin, uint256 _pStatus)\n    {\n        return (admin, uint256(pStatus));\n    }\n\n    function getStakerInfo(address _staker)\n        public\n        view\n        returns (Staker memory)\n    {\n        _staker = msg.sender;\n        return stakers[_staker];\n    }\n\n    //  function setUser(uint _idUser) public {\n    //     users[_idUser]._user_id = 0;\n    //     users[_idUser]._name = 0x7465737400000000000000000000000000000000000000000000000000000000;\n    //     users[_idUser]._address = 0x5B38Da6a701c568545dCfcB03FcB870000000000000000000000000000000000;\n    //     users[_idUser]._birth_day = 0xf711600000000000000000000000000000000000000000000000000000000000;\n    // }\n\n    // function uint2str(uint256 _i)\n    //     internal\n    //     pure\n    //     returns (string memory _uintAsString)\n    // {\n    //     if (_i == 0) {\n    //         return \"0\";\n    //     }\n    //     uint256 j = _i;\n    //     uint256 len;\n    //     while (j != 0) {\n    //         len++;\n    //         j /= 10;\n    //     }\n    //     bytes memory bstr = new bytes(len);\n    //     uint256 k = len - 1;\n    //     while (_i != 0) {\n    //         bstr[k--] = bytes1(uint8(48 + (_i % 10)));\n    //         _i /= 10;\n    //     }\n    //     return string(bstr);\n    // }\n}\n",
  "sourcePath": "G:\\Github Repo\\staking-dapp\\public\\truffle\\contracts\\StakePool.sol",
  "compiler": {
    "name": "solc",
    "version": "0.8.17+commit.8df45f5f.Emscripten.clang"
  },
  "schemaVersion": "3.4.10",
  "updatedAt": "2022-11-21T14:56:13.831Z",
  "networkType": "ethereum",
  "devdoc": {
    "kind": "dev",
    "methods": {},
    "version": 1
  },
  "userdoc": {
    "kind": "user",
    "methods": {},
    "version": 1
  }
}